:020000040000FA
:80000000FFFF62FF3900FFFFFFFFFFFFFFFFFFFFFFFFFFFFFFFFFFFFFFFFFFFFFFFFFFFFFFFFFFFFFFFFFFFFFFFFFFFFFFFFFFFFFFFFFFFFFFFFFFFFFFFFFFFFFFFFFFFFFFFFFFFFFFFFFFFFFFFFFFFFFF800C9001324006C840110051200A4481180355048A4011300246804C9001000000000000000000000000000000000C900132004E
:8000800026C80419280245A00814A8226004401488290245A008900108FC0017E0025C800B70012A800A50012A4005B4800A50012A4005A8003FE0020000000000000000000000000000000012E0025C001DF0032E4005A80015A00554800AA002544005A80015E00298FF0000000000000000000000000000000000000000000000000003
:80010000000000000000000000000000000000000000000000000000000000000000000000000000000000000000000000000000000098FF0000000000000000000000000000000000000000000000000000000000000000000000000000000000000000000000000000000000000000000000000000000000000000000000000000009850
:80018000FF000120000482401400000000000000000000000000000000000000212800000000000000000000000000000000000020000400101002020000000000000000000000000000000000002000D8F95604A0001000024000000000000000000000000000000000000020848000000000000000000000400000000000000080021041
:800200004204D01048000000000000000000000000000000000000A080E5FE000004000000000240000801010000040000100000000000008120040000000000000000000000000000000000000000800010000040000000002000048000100000492000248120413400C0FA0000000000000000000000200C0000000000000000000000F7
:8002800000000480000000000000000000000000000000000000000000000000000000000000000000000000000240000A00010800300060FB000000000000000000030000000000000800000000000000000004800000000000000000000000000000000000000000000000000000000000000000001000028016800158000680013C00C7
:8003000098FA00000000000000181003000A4C0800300100C010000000000040000800000000000000000000000000000000000000000006C2000100030100000000300246C0040800022000088051300040FD0000300600000000096340042C0800801000004800000000002000000000000000000000000000000000000000000000008E
:800380004002040000200100008009000110024214800250000A80013000B8FD00003C000000001EC00318200F00003C0000F000000000000003640001000000000000000000000000000000000000008007F04000C003000000E0013DA007F000104002400009E0013900F0FD0000300000000018000301000C0000300000C00000000051
:80040000000000040000000000000000000000000000000000000000000006C0000000030000008001300006C00014900251000A8001300018FC0000300000000098040B0042220400300900C024000000000088808000000000000000000000000000000000000000000026C1240000930000008001300926C124080109200A44884530AE
:800480000090FE2080008000000002000000000120008400001000004000000081000000000000000000000000000000000000000000008000000000400008000D0000048000100000492000248120000000C4FE000000000000000000000000000000001000000000000000000004000000000000000000000C0000000000000006000057
:800500000000000000000000000C000000000000000240000A00010800000028F90000000000000000000000000000800010000000000000000000040000000000000000000008000000000000000400000000040000000000000F0000001000028016800158000600400000A8FD0084000000000018100000002C8405000100C0100000A8
:8005800000000040000000000000000000000000000000000000000000000026000000005360200D0000300246C00408000220000880090000EBF90088000026020040000000000C00042004000004000003020020000000000000000000000000000000000000000000000040020000001004010C0000001240000414800250000A80491B
:800600000000C1F9600000800700001E100000000FE8010D0000F04000C003000003040000000000000000000000000000000000000000008007000000C00378400E00003C8007F440104002400009E001000008FE0040000006000018000000000C8801002000C00000000300000004000000000000000000000000000000000000000049
:80068000000006000000000360000C0000300006C00014800252000A8201000053F88004000006000018040000004C8041000100C020000003000084000000000000000000000000000000000000000000000006010000008360100C0000300806C1204810212082448051000000FB3044048000000002000008000020100410001000000E
:80070000000068008120000000000000000000000000000000000000200004800000000040000000000000048000D0000049200024812000000020FA000000000600000000000000000040000000000000000060000004000100000000000000000000000000000000000000000000000000000000000000000000C0000240000A00010830
:8007800000000058FB008000000004000000000000000041000000000000000070000000800000000000000000000000000000000000000000000004000000000000000000000000020016800158000600800000C0FD0C1000002600001810000000000004801000C0100000006800200408000000000000000000000000000000000080D7
:800800000132042600000000530000000000000046000008000220000880110000D0FE048030104600000021006044008001000400000200000060004004040000000000000000000000000000000000000480002000000000100000000000301020C00014800250000A00040000B8FF60003C800702001E0000780000E0010D0000F0805B
:8008800000000070000360800000000000000000000000000000000000E0013DA007040000C00301000000003C8007D200104002400009E001010068FF0C0030000600001800006000008001212000C00000000060000804010000000000000000000000000000000000800130000600000000030000000000000806000014880250400AF6
:8009000082010000D8FF008530001102005804006000008011000100C022000000680040008000000000000000000000000000000000008045B00816010000008B000000000080001601008800012100048045000068FCA0010484141000020000080100200004100010000000000800212080040000000000000000000000000000000007
:800980002000048000000002400008000000000480001008004920002481200000009CFC80010000000200000000002000000000000000000000000000000400000000000000000000000000000000000000000000000000000000000000000000000010800240000A00010800000020FD0000000006020000000000000000800020000056
:800A0000000000006000000400000000000000000000000000000000000000800000000400000000000000000000100060001680015800060080000088FF00000010440000181000000A008005000100C010000000600040008400000000000000000000000000000000008009300426000018085360200000003002268200080002200048
:800A80000880110000CBFD0080000106C4428000004002000008800000004200000060144804003006000000000000000000000000000000000400411000008000200182000000000120A00014800250000A0080000031FA60000CA007F0001E0800184000E0010D1000F00000000078000360003D0000000000000000000000000000002B
:800B000000E0013D800704001ED00378000000003C90079200104002400009E0010000B0FE0000200006C0001800000000008001000000C00000000060100000003000000000000000000000000000000000800130000600001800036000000000300006A00014800251200A800100001BFD00848010A6C0001805000020008051100500A6
:800B8000C028000000600400848030000000000000000000000000000000008051300A4601001805A36014000000300A4641200808012002249051000000FB300404000010009A10000000012000300A0010000000000800212000000000000000000000000000000000000000000480000000024000080000000004800010080049200062
:800C00002481200000008CFA00800000000000100000000000000030000000000000000000000400010000000000000000000000000000000000000000000000000000000000000000000010800240000A000108000000A8FE0080300000000018000000000000803C00000000000000002000040000000000000000000000000000000031
:800C80000000000000000004000000000100000000001000600016800158000600000000C8FA0C0830000000005804000000008005340000C010000000600440008000000000000000000000000000000000000000300426000018081360200000003002268200080002200008808900005BFB0488B02000C04218010000002C02900009C5
:800D000000000401000000218000800000000000000000000000000000000000000000010002000021100002000000800010A20014800250000A0010020009FB60003C0000F0001E040000000FE001080000F0000000007800036400000000000000000000000000000000000000003CA00700001EC00379200000003CA007900010400248
:800D8000400009E001000008F80C41301000C00018000000000C8041000000C02000000060100804000000000000000000000000000000000000000030080601001804836010000000300806A18014900251200A804100000BFB0004B00000C00098040000000C8011000000C0080000006004808084000000000000000000000000000049
:800E000000000000003002460000180123600400000030024640080800112001248411000078FBA001048000000002000008010D200804A0001008004000080021200400000000000000000000000000000000000000048000100000400008000000000400421208004920002485200000000CFB8001000000000008040000200C80400098
:800E8000000000200000000000000480000000000000000000000000000000000000000000000000000000000000000000800210800240000A00090800000088FF0000000000000010000000000C0040001006C000000000600000048000000000000000000000000000000000000000000000004000000001000000000C80076000168078
:800F0000015800060080000040FF08000000000000080400000A0C00100001060022000000600080000800000000000000000000000000000000000000300446C20400001360200000000400008000080002200008801100002BF90000311086000018030000000004898000C64080000023601400040000000000000000000000000000BA
:800F800000000000000000420002040000200121000000300605A00014800250000A0090000009FE60003C8007000006000018400360000C9007B00000C0037A00036000010000000000000000000000000000000000003C8007F04000C0037800000000380004900010400240000BE0010000F0F8040030000600001800004000000041FA
:801000002000064200000003601000000100000000000000000000000000000000000000300806C1200000836010000000300005A00014800250400A8041000073FA008030000600009808000020020000000516C044000003600404048000000000000000000000000000000000000000B00016C00200000B600100000030001241240826
:8010800010512004088105000018FC30100000000000424000080089200034801010040040080A0001240400000000000000000000000000000000000000048000000002400008000120008408401208004920002401200000001CFE00800000000000080400600000040030000002200000010000000080000000000000000000000000A3
:80110000000000000000000000000000000000000000000000800010800240000A00000000000058FC0000010000000010000000000C0480380000C0200000001800000400000000000000000000000000000000000000000000000000000000000000000020900560001680015800000000000028F90C08000000000008050000210880FB
:80118000053400A000080000080A00800008010000000000000000000000000000000000003004460200980253600A0C8191000102800008000220004C81890000ABF80481000000000018101300040C0480300004400800002060012000100000000000000000000000000000000000000000011000004000080182200490300905A000ED
:801200001480025000200090000031FA6000000000000006C0031A200FE001388001B48000C0007110036480000000000000000000000000000000000000003C900704001ED00378000FE0013C0004900010400240000FE8010000B0F80C00000000000018000300000C80413000004040000000600000008100000000000000000000008E
:801280000000000000000000300806010018048360100C8241300005A00014800251000C824100009BF800840000000000182103000A4C8201300000C204000008610004040800000000000000000000000000000000000000300006000018000360000C8001300A02418488082120210C80010000C0FE20100180000000820400080101EE
:80130000200484000050000040100A0001240000000000000000000000000000000000000000048000100000400008000120000404401208004920402401A0010000B8F80000000000000000000000200000800010000020000000000000000000000000000000000000000000000000000000000000000000000000000000000080001018
:80138000800240002A00008001000068FD008000000000000000000000000000012000C080000000600000000000000000000000000000000000000000000000000000004000000001200300001080056000168001580000C0010000C8FA00000000000000000500000A000004000100C008000010620000040000000000000000000010AD
:80140000000000000000000800300446C2000000136002008021000902800008000220004CA101000012FE0008000026020000050040408C0011001000C028000000611440840101000200000000000000010000000000000000001220004200000801248C0080300205A00014800250004080010000E8FD60400080070000060000180082
:801480000F68800C0000F00000C000780003E001000004000000000000100200000000000008003C8007F40000C00378000EE2013C0804900010400250000FC801000088F90040000006000008040000000C0000210000C020000000601008800100800400000000000050020000000000000800300806C12000008360100C8041300005BF
:80150000A00014880250200C8201000001FB8004000006000058000000200C0008000500C002000022640420840100000400000000000000020000000000000000300126C00400001360020D8009B00822414208014140044C80010000E0FA1000000000000000000000000000000000000000000000000000000000000400000000000054
:8015800000020000000000000000000000000000000000000400000000C00088802020020C80080000008CF920000480001000024000080001200004800010000240000000012000040000000000000000000000000000000020000480001000024000080000200004800010000240000800012000040008FE000000000000000000000081
:801600000000000000000000000000000000000000000000000000000000000000000000000000000000000000000000000000000000000000000000000000000000000098FF2C00048000100002400008000120000480001000024000082101200004000000000000000000000000000000002000048000100002400008000120000480E1
:8016800000100002400008000120000400D3F9040000000000000000000000000000000800000000000020440000000000000000000000000000000000000000000000000000000000000000800800102222400008000120000400048020D1FF2000048000100002400008000120000080001000024000000001200004000000000000005C
:80170000000000000000000000200004800010000240000800002000000000010000100000400020400000F0FA0C0000000000000000000000000000002000000000000000000000000000000000000000000000000000000000000000000000000000000000000400000000000000000000000000000100C3FF20000480001000024000C7
:80178000080001200004820010000240000800012000040000000000000000000000000000000020000480001000024000080081200004800010000240000800012010001118F800000000000000000000000000000000000000000000000000000000000000000000000000000000000000000000000000100000000000000000000000DC
:80180000000000000000000000000000000088FE000000000000000000000000000000000000000000000000000000000000000000000000000000000000000000000000000000000000000000000000000000000000000000000004000000D8FF000000000000000000000000000000000000000000000000000000000000000000000007
:8018800000000000000000000000000000000000000000000000000000000000000000000100000010000004D8FF02000000000000000000000000000000000000000000000000000000000000000000000000000000000000000000000000000000000000000000000000000000400000000000080000000070F900000000000000000049
:8019000000000000000000000000400000000000000000000000000000000000000000000000000000000000080000208004800000000000000000000000000000000000008038FD000000000000000020000000000000000000000000000040000000000000000000000000000000000000000000000000000000000000000000000000E6
:8019800000000000000000000000000000000098F9000000000000000000000010000000000000000000000000000000000000000000000000000000000000000000000010000010000000810000040040000000000000000000000080000000C0FF000000000000000000002000008000100000000000000000000400400000000000002E
:801A00000000000000000000000000000000000000000000000000000000000000400008040000000000000008E0FD08050005140000000050082000204004000000000000000000018200010000000000000000000000000000000000000800A0200000800001000200800000001000D21200400B0040000020F8FF00240822008400007C
:801A800000002000000098220000000000008008000A5400300000000000000000000000000000000080001022214A49090041001020140000000400001010000840000000490040FB000000000000000000002000000000000000000000008000000000001000000000000000000000000000000000800010000040000800010010000079
:801B000000000000000000000000000000000000B8F902400000004000000000000000000010000000000000000000040000040000000000000000000000000000000000000000000000000080000000000000000200000800000000000000008004F900000000000000000000000000000000000000000000000000000000000000000013
:801B800000000000000000000000000000000000000000000000000000000100000000020000000000000000000088FD00000000000000200000000000000000000000010000000000000000000000000000000000000000000000000000000100000080000000000000000000000000000000000000000000000028FC0000000000000097
:801C00000000000000000002000000000000000000000000020000000000000000000000000000000000000000000000000000000000000000008000000000800008400000000000D0FD10000000000000000000000000000000000000000000400000000000000000000000000000000000000000000000000000000000000000000000FB
:801C80000000000000000000200000000000000000ACFF00000000000000000000000000000000000000000000000000000000000000000000000000000000000000000000000000000000000000000000000000000000000000000000000000000098FF000000000000000000000000000000000000000000000000000000000000000082
:801D00000000000000000000000000000000000000000000000000000000000000000000000000000000000000000098FF00000800000000000000000000000000000000000000000000000000000000000000000000000000000000000000000000000000000000000000000000000000000000000000000000000018FF000000000000AD
:801D800000000000000000000000000000000000000000000000000000000000000000000000000000000000000000000000000000000000000000000000000008000020000080000030FF00000000000000000800000000800000000000000000000000000000000000000000000000000000000000000000000000000000000000000084
:801E000000000000000000000000000000000000000010FF000000000000000000000000000000000000000000000000000000000000000000000000000000000000000000000000000000000000000000000000000000000000004000010000000000C8FA00000000004000000000000020000000000000000000080000000004000000E4
:801E8000000000000000000000000000000000000000000000000000000000000000000000000000000000000000000034FB000000000000000000000000000000000000000000000000000000000000000000000000000000000000000000000000000000000000000000040000000000000000000000000000000000C9FA0000000000EC
:801F00000000000000000000000000000000000000000000000000000000000000000000000000000000000000000000000000000000000000000000000000000000000000000000000098FF0000000000000000000000000000000000000000000000000000000000000000000000000000000000000000000000000000000000000000CA
:801F80000000000000000280000000000000000000000038FF000000000000004000000000000000000000000200000000000000000000000000000000000000000000000000000000000000000000000000000000000000000000000020000000000000D8FB0000000000000000000000000000800004000000000000000000000000006F
:8020000000000000000000000000000000000000000000000000000000000000000000000000004000004008000000000018FB00000000000000000000000000000000000080000000400000000000000000000000000000000000000000000000002000008000000002400000000020000480000000000000000000000050FF0000200010
:80208000000000001000400000400000000400000000022000000000000000000000000000000000000000000000000040010000000000140000000018000000000000000000008000000018F80000400000000010000080000000401000084000000004200000000000000000000000000000000000000000000000000800410000040153
:80210000200004000000080240400000000100000600000082FD00000080020000000000000100004000000000000000000000000000000000000000000000000000000000000000400020000000001000000000000000080800000000000000000202010060FF000200000000000200000000100000000000000000000000001000000060
:802180000000000000000000000000000000000000000000000000000000000000000000000000000000041000000000000098FB00000000000000000000002000000000000002100000800000000000000000000000000000000000000000000000000000000000000000000000000004000000000800000000000000000060FA0A000016
:80220000000000000000000000000000000000000000000000000000000000000000000000000000000000000000000000000000000000000000000000000000000000080000000000000000B8FD00000000000000000400000000000000000000200000000000000000000000000000000000000000000000000000000008000100000470
:80228000000010000000000001000004000010000000400000B0FD80001000000000000000204004800000000000000000010010040000000000000000000000000000000000000000001008020000080001201004800000000000000000000000000000000098FC084000200000000000010000000000000000000000000020000000400F
:8023000000000000000000000000000000000000004000000004000000000000000001001000028000080400000000800000007EFF40280925A00014504000103002404010080000000080000820420140010000000000000000000000000000000020000890A1000004840010200248000480141100D212004011002000000858FE0000E6
:802380008004A5800450000840122C0029900402446801008372400C9481220600000000000000000000000000000000201008022110A2040522100680002050840500102A0008400000000001A8FA0000000000000000000000100400000800014040008040100002400000000000000000000000000000000000000000100802010000BA
:8024000002012010048000000080000000000000000000000000C8F800000008812000040000100002402000080000000000012000048000080800000000000000000000000000000000800000000020000000000000000010000201000804000000000000000028FF100000040800000040000000000000008000200000000000000000A7
:802480000000000000000000000000000000000000000000000000000000000000000000000C000002000000000000000000000044FD02040000000000040000000000802000000020000000000000000000000000000000000000000000000000000000000800000000008000000000400000000000002000000000004000008050FD408E
:802500000400001000000000000001020024880000100000800000000240000000000000000000000000000000000000000000000000000000000000000000000000000004000000000100000000E0FD480100000400000000000000080401240000000000000005000C0081000000000000000000000000000000000000000000000000D4
:802580000000000000000000000000000000420020000000000000A2FD00000000000000000080000000010000000000000000000000000000000000000000000000000000000000000000000400000000000000000001204000000000000000000000000000000068F9000000000000000000000000000000000000000000000000000093
:802600000000000000000000000000000000000000000000000000000000024000080000000000000000000000000000010000000010F80000040000000000000000000040000000000000000000000000000004000000000000000000000000000000000000000001000000000000000040000000000000000000000000400000009CFAA8
:8026800000000000000000000000000000000000000000000100000001000000000000000000000000000000000000000000000000000000000000008020000080000000020000080000200000008090FE00001008000000000001001000000000000200000000000000000000000000000000000000000000000000000000000000000055
:80270000000000000000000000000000000020400000000000000000E0FC800004000000000002000800020000008000000000000000000000000000000000000000000000000000000000000000000000000000000000000000000000001000840108000000004000C8FD0000000000000000000000000004000000000000000000010066
:802780000000000000000000000000000000000000000000400000000420000000001000000000000000000000000000000000000000D8FC000000000000000000000000000000000000000000000000000000000000000000000000000000000000000000000000000020000000000000000000000000000000000000000000200000B899
:80280000FD200000000000000000000000093000348010040002400209000D2000040000000000000000000000000000000000000000000000004003080001A101040000100002400008000120008400F8FB0000000000000000000000000C0000300000000000000300000C0000000000000000000000000000000000000000000000008D
:802880000000000003000000800100000000000000000000000000002040FD008000000000000000000000006200300004020000008000200C0080000000000000000000000000000000000000000000000000008003601008C001001000000006000060100000002008C8F880010000000000000000000024200030000400000000096027
:80290000020C8001302000000000000000000000000000000000000000000000004003000488B001300000C04002000000000000002000C0FB00080000000000000000000008821181001202008008120024800080001100000000000000000000000000000000000000000000000080601024005000100000481803106002200204101055
:8029800070FAE0010100000000000000000003E0010C8803000006C080780003E2013C000000000000000000000000000000000000000000000000C00078000768003C0000F0001EC00079100360401C00E8FB800100000000000000000000088001000000000018100260000080013000000000000000000000000000000000000000000F
:802A00000000000000006010000800300000C00018000362000C82010000B8FF804900000000000000000000408801000010040058000861120080493009000000000000000000000000000000000000000000000000006001000000300900C02418002360088C80418010C8FF2000000000000000000000000D20000480141000024012A2
:802A80000A0001200004000000000000000000000000000000000000000000D000004000080041280000000010000240000800012010050054F90000000000000000000000000C0000000006040000000300000000000000000000000000000C000000000000000600000000C000000000000000000000000000000000000020000000003E
:802B000000B0FA0080000000000000000000000C00000800000200000080002003008000000000000000000008000000000000000400000000E0000080000000084200000000004000000340100C0281300080FB8001000000000000000000000C8029040012C0100000096002018001000000000000000000000000000000000000000066
:802B80000000D0000040006020882000000000C0081808204104200001800833FD000800000000000000000000200280B02044024800001200028C04840020000000000000000000000000000000000000000000020000030020848201000000000400092322110C8248B008A1FAE0810000000000000000000003E0013C8001F00006C4B3
:802C00008078400FE0010C000000000000000000000000000000000000000000308000C083780007E041000000F0801EC00338000FE0003C00B0F9800100000000000000000000008001300004C40018100260000C80013000000000000000000000000000000000000000000000000000036000008401000000C00018000300000C02001E
:802C80003100E3FF804100000000000000000000008041300010C02018004060100C8041B010000000000000000000000000000000000000000000000000036010008001000000C02018045300820C0010300AB8F9300000800000000200000000892844048000D00002400808040121100400000000000000000000000000000000000077
:802D00000000001000004003080001200000800610001A400348800120040404F8FD0000000000000000000000000C0000000000C0000000000110000040000000000000000000000000000000000000000000000000000003000000000000000600001800006000000080000000FF000001000000000000000000000201080000C00018F9
:802D80000002400008000130200000000000000000000000000000000000000000200000000300000C6000000007000018C00000100004012008B0FB8C010000A600001811000000240049040000C0008004A2400A0802050201000000000000000000000000000000000000000010000000036020000200008006C04018001021010C0062
:802E0000812001A0FB040800002000004000000000088248B010000220180189201144821032060000000000000000000000000000000000000000C00800008000210C8249000020000240040B4012808008100118F9E08100800702001E1000000003E0003C800130001EC801380007E0003C0000000000000000000000000000000000BD
:802E800000000000F02000C00078000FE001008001F28006800019000FE8401C20E8FB8C01000006000018000000000800003000060000180000010000000030000000000000000000000000000000000000000000C00000000060000C8001000000C00000000340000C0080000040FA8045000016010058040000004001403000260200F9
:802F0000181110001200044830050000000000000000000000000000000000000000C00000000060118C8201000000C02200004000222C0204001258F93000008000000000000000000D200034800010000240000800892001A40000000000000000000000000000000000000000001000004000082289280000800010001A400008000115
:802F80002000A400A8F80000000000000000000000000C0000300000000000000000000C844110200000000000000000000000000000000000000000000000000000000C000000000000001800000000000000301018FA0080000000000000000000000C8001300000000000880000000002002C08000000000000000000000000000000BF
:803000000000000000300000C000400000400000800100401800006000006400001060FE8C010000A6000000000000000C0044300000C0105840000000848000920000000000000000000000000000000000000000000000000000400A242800000000C00818002302100C20001001B0F8048000002000000000000000008251000200001B
:80308000048000030401880005A2100000000000000000000000000000000000000000C0280000A3200C48901100000601480000006101008401210AB8FBE0010080070400000000000003E0010C8801F1801EC803182003620018000000000000000000000000000000000000000000F00000C003380003E041008007F00006C403781082
:803100000FE0010C0050F88C0100000600000000000000008081000006C000180003600008000130080000000000000000000000000000000000000000C0000000030000088001000006C00000000360000C80012000F0FF805100004601000000000000008011000006C22818050360114001401801000000000000000000000000000020
:80318000000000000000C0000000030080408101000006C0280000A360208C8201802038F9300000800000000000000000012100248200D000424403080001200084080000000000000000000000000000000000040000100000400008010120000080001000124103080041200004008CFD000000000000000000000000000000301000B9
:80320000C0000000030000000000000000000000000000000000000000000000000000000000000000001000000000000000001804000000000200000098F9000001000000000000000000086200000006C20018080300000380012008000000000000000000000000000000000000000020000080004040034000000001000000C400188A
:80328000000860000000F0FD8C010000A600000000000000482000900820C00090000300000100440001000000000000000000000000000000000030100010000040004001012000008000C0404800A0080028240000005BF90410000040020000000000002482052002C60010180310000C4C8809300A0000000000000000000000000044
:8033000000000000000100C00200002320018C810900001600041000836020448081800029F8F0010180070000000000000007E0810C880730001EC08018000FE0413C0000000000000000000000000000000000003C1000F02000C08338400FE041008007F180068400780007E4010C0828FC8841000006010000000000000088012000B1
:8033800006000018000060000C800130100000000000000000000000000000000000300800C00000000300000C8001000006C0201004836000008001300083FF801100004600000000000000008001801046020018050060140C801131010000000000000000000000000000000000300200C00000000300100C8001000006C008000008F2
:803400006000208201300970FE30000080000000020000000001200084800090081A4000080001A001040000000000000000000000000000000020000400001000004000488401A001008000000002400008004120092501F8FE000000000000000000000000000000001000C0200000000000008001000000000000000000000000000088
:80348000000000000000000000000000006000008001000000000000000000000088013010A0F8000001000000000000000000020000200006000004D00018000C800100000000000000000000000000000000000080000000300000C000000000800100800100000600001800080040000040FF8C01000006040018110000000180292047
:80350000082041148240000800208201302200000000000000000000000000000080053005000000000000200800800100000000000200000800088410102292FB0480000000020000090000008C0184900046802058002360844C000402010000000000000000000000000000000004001000C0280000A340088000500000060100181099
:80358000006200040091200848FBF00100800700001E000000000FE0011C8807310004C40379000F62003C10000000000000000000000000000000E0013D0000F00000C003180003620000800700001EC00078400764000C0020FA8841000006010018040000000C804100000680001A000360000C0000300800000000000000000000000A
:80360000000000008041300800C00000000340200C000000000600001800036000000001210009FA8005000016000058000000000C8005001046042800040360004C0800B0000000000000000000000000000000008005B00000C00000000300044C0200000006000018009360004008000005F8FB300000800010000240006800012011D4
:8036800024810010041243600800012000040800000000000000000000000000000020000400001000004000080001200004800010000240000800292000040024FD0000000000000000000060000088413020000020080000000000000000000000000000000000000000000000000000000000000000000000000000000000000000009D
:80370000000000000C0200000070F9008000000000000008007900080240000006802016000200000000003010000000000000000000000000000000008000000020000080000000036000001001000000000000000080010C00B0FF8C01000086C014580013600048801090084081040805A20000000000A0000000000000000000000083
:803780000000000000800530050010000040000000012000308000C01418080000008404440400FBFD04100000000202400008610024020120021641101008890044200004B0000000000000000000000000000000000090000100C02400009300120C840580102601480008200404288041302061FEF001018007F0801ED00370000760E1
:80380000400C880770000CC00118000362403C20000000000000000000000000000000E0013C2000F00000C00318000FE0813C8007F0001EC000181003E4013C0020FC8841000006C1201804836000000041200006010018040062100C800130080000000000000000000000000000008041300800C00000000360000C8001300806C02075
:80388000180403612008804130002BFC8001000006C000180003680040100400044600204C002060040C8891B0000000000000000000000000000000008001300000C00000000360140C8001300006C00018002360048082053000E0FB20000080001000024000680001A001048600100082400048000120003400000000000000000000CA
:80390000000000000000000004000010001A40004804892400008000100002450068000920850400E0FB0000000000000000000060000080010000000000000400601000000000000000000000000000000000000000000000000000000018000060100C0000000000000000000060000C8801000090FA00400000000000000800780002EA
:803980008001200000300010048300100C824108000000000000000000000000000000000000001000000018C0000000006200000001004010000362000000000C00B0F800100000A6C01058005360000180012008001000400000200100000004110000000000000010000000000000000800300000C0141840002041040000008000C0EA
:803A0000089004106000448450040038FE0044000020024200092061004C0048900020C00898042340082C8249B000020000000000000001000000000000000000010000424000234441488249000046010248042300128800113000B8FC6000008007F0001EC00370000F64001C8801F1801EC08318000FE0010808040000000000001036
:803A80000200000000000008003C1000F00006D003180003E001008007F0800EC00319000364803C1028FF8001000006C12018048360000C0000000006C00018000341000C840134800400000000000050020000000000000800300800C0200000034000088801000006C0200000030000080001300060FA0044000026C004980013600097
:803B00000C0000002216C10098200300108C808900080400000000000000020000000000000000300100C0040000030011808001000006C0040004830000800884300080FC10000000000000000000000000000000000000008010000000000000802004000000000000000200000000000000000000000000000000000000000000000079
:803B80000000000000000000000000003CFD20000480001000024000000001200004800010000240000800012000040000000000000000000000000000000020000480001000024000080001200004800010000240000800012000040010FF0000000000000000000000200000000000000000000000000000000000000000000000000021
:803C0000000000000000000000000000000000000000000000000000000000000000000000000000000098FD2C0004800010000240000802012000048000100000400008000120000000000000000000000000000000000000200004800010000240000800012000048000100002400008000120000400E3FC040000000000000000000080
:803C80000804800010000040000802012000040000104000000000000000000000000000000000000000004000000001000004800000000200000800092200008000100029FD300004800010000240000000000000008000000000000000000020000000000000000000000000000000000000200004800000000200000800000000040061
:803D00000010000000000000010000000058FD080000000000000000000020000000000000000000000000000000000000000000000000000000000000000000000000000000000000000000000000000000000000000000000000000000A3FE200004800010000240000801012000048000100002400008000120000400000000000000F1
:803D8000000000000000000000200004800010000240000800012000048000100002000008000120000400C8FF00000000000000000000100000000000000000000400000000000000000400000000000000000000000000000000000000000000000000000000000000000000000000040000000000800800FA000000000000000000007C
:803E00000000000000000000000000020000000000000000000000000000000000000000000000000000000000000000000000000000000000000000000000000000000000B8FD000000000000000000000000000000008000000000000000000000000000000000000000000000000000000000000000000000000000000000000000000B
:803E80000000000000004000000000000000D0FB040000000000000000000000000000000000000000000000000000000000000000000000000000000000000000000000000000000000000040010000000000000000000000000000000000C8FE02000000000000000000000000000010000000002000000000000000000000000000007A
:803F00000000000000000000000000000000000000000000000000000000000000000200000000000000000088FF0000000000000000000000000000000000000000000000000001010000000000000000000000000000000000000000000000000000000002000000000000000000000000000000000040008CFC004000000200000800A2
:803F800000000002000000000000000000800000000101000000000000000000000000000000000000000000001000000000000000000000080040200004000000000000008058FD0000001000000000000020000082401020040000080000400008000000080000000000000000000000000000000000000000100000000000100400004A
:80400000000000800000000102100002401000D8F900850020010000040000080002280365A5008002020000090A01440000200000000000000000000000000000000000000000300000000A00400180000010003040804A600240000800A500D8F88820100002010000000200090209208800808000500002000E008100040000000000E3
:80408000000000000000000000000000000000028120004000400008000120840440200202214200080221800470F882002000020200000000000000000000000000000000000000000001000000000000000000000000000000000000000000840010000000000000000000000040200040000000000200000010FA0E40000000000000D9
:804100000002004000080001000084001000020010000100000000000000000000000000000000000000000000004000000000400008000120200400000010004000080081008894FE000000000000000000000000080000000000004000000000000000000000000000000000000000000000000000000000000000000000000000000045
:8041800000000000000000000010000000000000D0FA00000000000000000000000000000000000000000000000040000000000000000000000000000000000000000000000000000000000000000000000000000000000040040000000000000098FB0000008000120000800000000000000000801000000000100000000000000000001C
:8042000000000000000000000000000000000000000000000000000000000000000000000000000040000000000068FF1000000000000000000000000104000000000000000000000000000000000000000000000000000000000000000000000000000000000000000200000000000000000008000008000004087CF800000000000000F0
:80428000000000000000000000000000000000040200000000000000000000000000000000000000000000000000000000000000000002000000000000004000020000000000000098FF00000000000000000000000000000400000000000000000000000000000000000000000000000000000000000000000800000000000000000000D1
:80430000000008000040000000000020020000000030FD000000000000000000000000010000000401000000000000000000400000000000000000000000000000000000000000000000000000000000000000000000000000000000000000000000D8FA1800000000000000000000000080010000000000000000000002000004000000EF
:804380000000000000000000000000000000000000000000000000000000000000000000000000000000000000000098F900000000000000080000000000000000000000000800000000000000001000000000000000000000000000000000000000000000000000000000000000000000000000000000000000000090FE0004000000007A
:8044000000000000000000000000000000000000000000000000000800000000000000000000000000000000000000000000000000000020000000000000000000000000000000200018F9000000000000000000000000000000000000000000000000000000000000000000000000000000000000000000000000000000000000000000E3
:80448000010000000000000000000000000040040000C8FE00000000000000000000000000000000000000000800000000000000000000000000000000000000000000000000000000000000000000000000000100000000000000000000000000000008FF000000000000000000000000000000000000000000000000000000000620007B
:80450000000000000000000000000000000000000000000000000000000000000000000000000000000000000000000098FB00000000000000000000080000000000000100000200000000000000000000000000000000000000000000000000000000000000000000000000000000000000000000010000000000000020FE00000000007E
:804580000000000000000000000004000000000000000000000000000000000000000000000000000000000000000000000000000000000000000000000000000000000000008000000050FB0000000000000000000000000000000000000000000000000000000000000000000000000000000000000000000000000000000000000000EC
:8046000000000000000000000000000000000004200000F8FF00010000040000000000000000000000000000001000000000000000200000000000000000000000000000000000002000000000000000080000000000000000000000000000000200000010FB00000000010000000000000000000000000020000000001800040000000078
:8046800000000000000000000000000000000040000000000000000000000000020000000020000000000000000000000058F9004000000001000000000000000000000000002000000000100004000000000000000000000000000000000000000000080000000000000000000000000000002000000000000000020000B0F900000000BF
:80470000000020000400000000000000000000004080000000000002000000000000000000000000000000000000400000000000000000000000000000000000200000022000000000000038FF000000000000000000000000000000400000000000000000000000000000000000000000000000000000000000000000000000000000005A
:804780000000000000000000000000000000001000000000C8FE00000000000000000000000000000000000000000000000000000000000000000000000000000000000000000000000000000000000000000000000000000000000000008000000000000032FD0000000000000000000000000000000000000100000000080000000180AA
:804800000000000000000000000000000000000080000000000000000000000000000000000000000000000000000000000090FF400000000000000000000000000000000000000000000000000040000000000000000000000000000000000000000000000000000000000000000000000000000000004000000000040000D8FB80000012
:80488000000241000800012000000000100000000000000000000002000000000000000000000000000000000000000000080002000000000000000000100000400000000020000000000000F8F81A000000010000000000000004424020080240000000012000048000000000000000000000000000000000000080001000000000000090
:8049000000201000000000000000200804800000000840108852FA4003A08501220004800010000128000DA00010140040500800412500000500000000000000000000000000000020000410000200000000084A00000008000020800210001200000840A52080FE0000C80186C10018040160000820202008048010002962420808014184
:80498000000100000000000000000000000000000000202008004080040042000F800101110E004A0050020010501600002806A0FA00000000024100080401200000000000080000000000000000000020000000000000000000000000000000000000000008004000000000000000000008100040000000000010040000000098FB0000FF
:804A00000000842000040000100002002010000240200000012110048100000000000000000000000000000000000000401000000000000081001000820000080000000804000000000000100868FB5080000000400000000100000088000000000000000000000010800000000000000000000000000000000000000000000000400000D8
:804A800000002000000000100000000004C000000002040000007CFB000000000200000480000000000000000008000000000040000000001000000000000000000000000000000000000000000000200004000010000000000000000004000000000000000000A0FD00000000000000000000000000000000000A00004040000000000008
:804B0000000800000000000000000000000000000000000040000000000000008000000000000000000120000000000000000000F8FC00000080001000004000000000200000000001000000420000000000000000000000000000000000000000000000000000000000000000000000000000000000000000000000000001000078FE02AC
:804B8000000000000000000000200000000000000000000006000000000000100000000000000000000000000000000000000000000000000000000000000000000400000000080800080000000028F81000000000000000000000000000000000000000000000000000000001000000000000000000000000000000000000000000000032
:804C0000000000080000100000000000000000000000004000000010FB000000000100000004000000004000000004000000000000000040000008000000000000000000000000000000000008000000000000001008000000080000000000008080000000000000C0FF000000000000000000000000000000000000000000000000010058
:804C800000000000000000000000000000000000000000000000000000000000002000000000000000000000000000000000000000A8FC08000000000000000000000000000000080000000290000000000000000000000000000000000000000000000000000000000000000000000000000000000000000000000000000000208000FDB1
:804D0000000000000000000000000000200000200000000000000000000004004000000000000000000000000000000000000004000010000000000000000100000000100000000002001000000000F8FA00000000000000000000000000000000000000000000000000000000000000000000000000000000000000000000000000000086
:804D800000000000000000000000000000000000000000000000080010FF02000000000000000000000000000000000010000000000000000000200000000000000000000000000000000000000000000000000000000000000000000000000000000000000000000088FF0000000000100000406200000D20000000000000124100282465
:804E0000012000000000000000000000000000000000000020000480400000024003080045208800000000000240030000010000000070FE0000000000C00000000100000C80010000000000000403200000000000000000000000000000000000000000000000000000010000000300000002000000000000000003000000000000003091
:804E8000F90000000000C04000000200000C000000000000001004037800036000000000000000000000000000000000000040000C80010000048003180000028000000000000600000000030000000030FF0000000000C00400000B01000C80210000000000000000020000000000000000000000000000000000000000002000000006EE
:804F00000100024003000040000000000000000000000000000000000058F80000000000C00200000A0000008401000000000098080852002C842100000000000000000000000000000000008009300805000058100360402C0010020000000018052004000C0200000020FB0000000000F02000C003020003608000000000000E4003407D
:804F8000000EC0010000000000000000000000000000000000C04138000400001C8003700007E20000000000001E400000000F0000000080FA0000000000C0000000030100008001000000000018040350000C800100000000000000000000000000000000008001300004000018000360000C8200000000000018000300000C00000000A0
:80500000E8FD0000000000E08400800B000002C085000000000058000020000C80010000000000000000000000000000000000800130000200001A400360002C8001010000000018000300000C0000000060FB0000000000900000400A000089200500000000000240120824000000000000000000000000000000000000000020000480C4
:80508000100000024003000001201002000000000040030000012000000094FC000000000000800000000100000480000000000000000001000000000000000000000000000C00000000000000060000000001000000030000000000000000000000000000000080010000D0FA0000000000C02000000200000C02010000000000000003D9
:805100005800000000000000000000000000080000000000000044000880010000048003000002008000000000000000000000030000000050FA000000000080000000210100888028000000000040040921000000000000000000000000000000000000000000200004801601000240030000018010000000000000002304000080210013
:8051800000DBFF0000000000C04000006300000C84310000000000800002500000000000000000000000000000000000000000008001300105000058001304004C0010010000000000000300000C8285000049FF0000000000F00000C00300000FE001000000000006480240000000000000000000000000000000000000000000C0413892
:80520000200400001C900300000EE400000000000000400000000FE0010000D0F90000000000C00000008300000C82410000000000000801500000000000000000000000000000000000000000008001300004000018000001000C0001000000000000000000000C800100009BFA0000000000C04400001300000C801100000000009800BC
:805280000120000000000000000000000000000000000000000000A00134000200001A002000000C8084000000000000000300000C40840000F0FB1000000000D000004000000001200000800010001A400A0824000000000000000000000000000000000000000020000480000400024000000045000000000000000040030000002000BB
:80530000000050F80000000000C000000000000000800100000000000000000200000000000000000000000000000000000000000000000000000000000000000000020000000000000000000000000000000028F90000000000C0000000000000000000008001300000000358000000000000000000000000000000000000000000600053
:805380000880070400048000010002020000000000000000000200000000000010FF0C00000000C0000000000000008021000000000000052124000000000000000000000000000000000000000000000004802000000240200000410000000000000000001300000080850000A8FB0400000000001800009300000C8001000026C20200A1
:805400000902500000000000000000000000000000000000000000008011301205000018002300002C000000000000000000030000008031000040F81000000000300000C00300000FE201010007E04006400240000000000000000000000000000000000000000000C04138000200001C848300000602000000000000004000000000E07B
:8054800001000088FA0800000000000000000300000C8001000006C000180401500000000000000000000000000000000000000000008001300004000018000300000C020000000000000000000000008001000068FA0000000000200000000300000C4084000006C00000010120000000000000000000000000000000000000000000A022
:8055000001340004000018002004002C0000000000000000000300000080910000E0F910000080061000000000000000200000800600000240220A24010000000000000000000000000000000000000020000480041400024062000001201002000000001A400300000000000400D0F80000000006000000000000000000000000060000F6
:8055800000000000000000000000000000000000000000000000000000800100000000000000010000000000000000000018000000000000000000E8F8000000000700000000000000000000000007000004000359000300000000000000000000000000000000000000E0010800053400040002000002008000000000001C0000000000FA
:805600000000000050FF0C00008006000000000000000080850080060000020011200000000000000000000000000000000000000000002000040020000002000B010001801000000000001A0053000000000000006AF80400000020C0180000000000008031000000040058000250008C00000000000000000000000000000000000000F2
:80568000C000300205C00018010200002C020801000000000008030000000000300210F81000000001F200000000000000E00100000100001C480240000E040000000000000000000000000000000000000001380805E0401CC40301000EE000000000000006400000000000003C10B0FA0800000000C00000000000000080010000000002
:805700000018000150000C000000000000000000000000000000000000000001300004C00018000300000C000100000000000000000000000000300051FC0000000000C0000000000000008011020000000018000120000C000000000000000000000000000000000000008000300004C00018809300000C809000000000000000030000C4
:80578000000000300060FA1000048006100000400300008921080080061000024002082400000000000000000000000000000000000000002044048000100002400A00000D0000000000000002400308000D0000040044FD000000000600000000030000040000010006000000000001000000000000000000000000000000000000000075
:8058000000000000000000000000000100000000000000000000000000000C0000000000FA000000000700000000030000080080000007300004000358000000000000000000000000000000000000000000604008800130000400020200000000000000000004000000000E0000000060F90C00008006000000000300002C841000800652
:80588000000002001122000000000000000000000000000000000000000000800504000000000200210000800200000000000002000301000D00000000A1FE0400B020C0C0000000000100880884000020C040800002500000000000000000000000000000000000000000004001B00006C12058006300000C02000000000000980003609C
:80590000240001003002B9FA10003C0001F02000C00000000FE000000001E400044802400000000000000000000000000000000000000000000001380807E0001CC403000003000000000000001E440078000300003C1048F80800300000C00000000300000C0081000000C000180401500000000000000000000000000000000000000072
:8059800000000001300006C00018000300000C020000000000001800006000000000300013FD0000300000C00000800301004E8108000000C000180001200000000000000000000000000000000000000000008000308006C00018000B02002C0000000000000018000360000000003000B8FD10000080069004004022000029200000808F
:805A000006000002400A0924000000000000000000000000000000000000000020500480001000024000000001208800000000000240030000010000000040FC000000000640800000000100000400000006000000000000000000000000000000000000000000000000000000000000000000000000000000000000000000000000000065
:805A80000000000000000078F800000080078040000003000008000000000700000404035900000000000000000000000000000000000000000060400C00012000048000010002000000000000000400000000020000000000FB0C00008006C00800009200008410000080060000420021200000000000000000000000000000000000009B
:805B0000000000A00100800010000240200000010020000000000002000B0100010000000070FC0400000000820800000301008C81510000100000000102500000000000000000000000000000000000000000004001300A46C00498000B00008C0010020000000098040300004C0200000088FF1000000001F04000C00300000FE0010075
:805B800000010400044402400000000000000000000000000000000000000000000001380007E1401C848300000EE20000000000001E400000000F0000000078F80800000000C00000000300000C80010000000000180401500000000000000000000000000000000000000000000001300006C00018000300000C8000000000000018004A
:805C00000000000C00000000D0FE0000000000C04800001304004C88010000000000000001200000000000000000000000000000000000000000008000300006D00018002004000C8081000000000018000300000C0000000080FC10000080009018000000000001A001008020000042441208240000000000000000000000000000000085
:805C800000000000204004800010000240000000012288008000000002400300000100000000DCFC0000000000400000000000000C8001000002010000000002000000000000000000000000000000000000000000000000000000000000000000000000000000000000000000000000000000D8FE0000000000800000000000000080017C
:805D00000000000100040403580000000000000000000000000000000000000000006040080001200006C0000100030200008001000004000001000200000000C8FB0C00000040C14200000000000C810100004000000A004120000000000000000000000000000000000000000000A00904800010000000200000200010020000000002C6
:805D800000230000010000000001FD0400000026804800000000000C00040100000100180002500000000000000000000000000000000000000000004001300116C1229804830000400010020086000058040300002C02000000D9FB1000008001F40000000000000F640000800100001C4402400000000000000000000000000000000035
:805E000000000000000001380807E0001C8003000002E20000000700001E400000000F0000000030FA0800000000C18000000000000C00000000000100180001500000000000000000000000000000000000000000000001300006C0001800030000088000000006000018000000000C000000002BFF0000000040E00400000000002244A2
:805E8000000000100000180501200000000000000000000000000000000000000000008000308006C0001800200400208209010006000018000300000C0000000070FC10000480261000004010000001201104810600000240214C2400000004110000000000000000000000000000002008048000100002400000000D208800000000006B
:805F000002400B0000010000000070FD00000000020400000000020000008000200600000000032000000000000000000000000000000000000000000000800000000000000000000000000000000000000000000200000000000038FC00000000060000000000010000800100100700000000015A000000000000000000000000000000E5
:805F8000000000000000600008000120000680000100020000000000000006C08300000200000000A0FA0C00000046C14200002100002C0449108206000000001320000000000004000000000000001000000000000000A8910480001000004020000081020402000000000040100000010000000068FD0400B02016C11800004000008CE1
:8060000081050106100200800001500000000000010200000000000000010000000000004001300946C12858048B00000C0210020000000018050100008C0200000038FB10003C8007F00000C00100000FE0011C0001000006C80150000000001C200400000000000010020000000000000801380007E0001C8003000002E0000000000072
:80608000001E800200000F0000000050FF0800300006C12000000200000C80012000000000180401500000000010A00400000000000050020000000000000801300006C00018000300000C8200010000000018000100000C0000000060FA0000300046C00200000904004C9045101200000018000140000000003002040000000000000022
:80610000020000000000008000308006C00018002004002C8005000000000018000200000C00000000D0FB10000000000000000000000000000000000000000000000000000000000004000000000000000200000000000000001000004000080000000000000000000000000000000000000000000024FA200004800010000240000800BF
:8061800001200004800010000240000800012000040000000000000000000000000000000000000000000000000000080001200004800010000240000800012000040078F8000000000000000000000000000000000000000000000000000000000000000000000000000000000000000000000001000004000000000000000000000000DA
:80620000000000000000000000000000C8FF2C0004800010000240000800012000048000100002400008000120000400000000000000000000000000000000200004800010000240500800012000048000100002400008000120000400B3F80400000020020000000000000000000000100444401000002240048800000000000000000050
:806280000000000000000000808800112202448008210122000000000000000008000802000400000000E1FC300004000010000240000800012000040000000000400000000000000400000000000000000000000000000000000000000000000000000000002400040000120000000008000020000400C4F9080000000004000000000038
:806300000000000000000004800010000040000800010000000000000000000000000000000000000020000080001000004000080000000004000000000200000000000022F9200004800010000240000800012000048000100002400008000120000400000000000000000000000000000000200004800010000200000800002000040023
:806380000010000240000800012000040080FA00000000000000000000000000000000000020000000000000000000000000000000000000000000000000000000000000000000000000000000000002000000000000000000000000000098FD000000000000000000000000000000000000000000000800000000000000000000000000E5
:8064000000000000000000000000000000000000000000000000002000000000000000000000000000000010FD000000000000020000000000000000200000010000000000000000000000000000000000000000000000000000000000000000000000000000002000000000000000000000000000000000A8FE0000000000000000000006
:80648000000000000000000000000000000000000000000000000000000000000000000000000000000000000000000000000000000000000000000000000000000000000098FF00000000000000000000000000000000000000000000400000000000000000000000000000000000000000000000000000000000000000000000000200C3
:806500000000000000000000000000000000BCFF000000000000000000000000000000000000000000000005000000000000000000000000000000000000000000000000000000010000000000000000000000000000000100000000000000D8FF000000000100000000000000000401000000000000000120000002000000000000000059
:8065800000000000000000000000000000000400000000000000000000000000000000004000000000000000E8F900000000002000000000410000000000000200000004000010040000000000000000000000000000000000000080200008000100000000001000400020080020000400811000000000000090FF04000000011000500031
:80660000000A0028440000800000000090001040010400000000000000000000000000000000000020000120A10400000000004040210004200010008242000B004001000000B0F80000000000000040000000000000000000100018B0008040102800007000000000000000000000000000000000200100000084582500000000004000EA
:80668000600104000000028200080001200400E8FE02000000000000000000000000000000000000000000800010000000040000000000000000000000000000000000000000000000000000000000000000000000000000800000000000008020F9060000000000000000000000000000000000002008000010000400001000000000009D
:806700000000000000000000000000000100000040200000000000000000108000000000080100200002400080F4FF000000000000000000020000000000000000000000000000000000000000000000000000000000000000000000000000000000000000000000000000000000000000000000000000000000B8FD000000000000000093
:806780000000000000008000000000000000020200000000000000000000000000000000000000000000000000000000000400000000000000000000000000000000000000000070FD000000000000000000000000000000000000000000800000000000000000000000000000000000000000000000000000000000000000000001000023
:806800000000000000000000000000000000000008FF1000000000000100000000000000000000000100000000000000000000000000000000000000000000000000000000000000000000000000001000000000080000000000000000000000005CFB0200000000000000000000000000000000000000000000000010000000000000007E
:8068800000000000000000000000000000000000000000000000000000000000000000000000000000000000008020FC100000000000000000000000000400000000000000000000000000000000000000000000000000000000000000000000000000000000000000000000000000000000000000000000000000CCFF0000000400000019
:80690000000000000000080000000000000000000100000000000000000000000000000000000000000000000000000000000000000000000000000000000000000000000000000040FB02000000004000000001000000800012000000000000000000000000100000000000000000000000000000000000000000000000000000000000EE
:80698000800000000000000000000000000000000088FB00000000000000000000000000000000000000000000020000000000040000000000000000000000000000000000000000000000000000000000000000000000000000000000000000000098F900000000000000000000000000000000000000000000800000000000000000007D
:806A00000000000000000000000000000000000000000000000000000000000000000000000000000000000000008018FF08000000000001000000000000000004001200000000000000000000000000000000000000000000000000000000010000008000000000000000000000000000000000000000000000000068FA0000000000007D
:806A8000000000000000300000000000000000000000000000000000000000000000000000000000000000000000000000000000000000000001000000000000008000000000000000B0FF020000000000000000000200000000000000000000400000000000000000000000000000000000000000000000000000000000000000000000F2
:806B0000000000000000000000000000000000000000F8FF000000000000000000000000000002000000000000000000000000000000000000000000000000000000000000000000000000000000000000000000000000000000000000000000000000B8FF0000000000000000000100000000000000000000000000000000000000000064
:806B8000000000000000000000000000000000000000000000000000000000000000000000000000000000008000000000FE00000000000000000000000000000000000000000000000000000000000000000000000000000000000000000000000000000000000000000000000000000000000000000000000000000098FF000000000080
:806C00008000000000000000400000000000000000000000000000000000000000000000000000000000000000000000000000000000000000000000000000000000000000000000000050FB0000000000000000400000000000000000020000000000000000000000000000000000000000000000000000000000000000000000000000C7
:806C800000004000000000000000000000000000000000F8FF00000000000000000000000000000000000000000000000000000000000000000000000000000000000000000000000000000000000000000000000100000000000000000000000000000088FF000000000020000000000000000000000000000000000400000000000000B1
:806D000000000000000000000000000000000000000000000000000000000000000002800000000000021200000000000090F8100000000000000000040000108002000000000000000000000000000000000000000000000000000000000000000000000000000000000000000000000000000000000000000000000000F0FB0400000060
:806D800000004000000000000020000000000000000000000000000000000000000000000000000000000000000000000000000000C000000000000000000000000000000000000000000030FD0000000000002000008000000000400008000000100000000000000000080000000000000000000000000000000000000000000000020044
:806E0000000000000000000000000000040000000000000010FE00000000000000000000000000000000000000000800000000000000000000000000000000000000000000000000000000000000000080000000000001000000000000000000000000000088FE0C00000000000000000000000000010010000000080001000000000000CB
:806E800000000000000000000000000000000000800000000000000000020000008000000000000000080000000000000004B0F948000000024000000000100000040000040200200084001000000200000000000000000000000000000000000000401000800020000000000004408000008000000800800008020000090062FB20000035
:806F000085A01000000000C80000480000B000008004D00A08000008000000000000000000000000000000000000402D15000004805080000000016200010000040002080002500100000515E8FE00010800A0000200000000000000030100840020C403092000DC810010000000000000000000000000000000000000810C004001500045
:806F800060000004402000040000185800424018000001000410FC00000000000000000000000000000000000000400000012000024000100000000000000000000000000000000000000020004000000000000008000000000000000400000020000000000080FB2000000000010000000000000080000000010200000400000004020046
:80700000000000000000000000000000000000000000000008000000080080000000004000040000200800811008004000001050FA100000000010000040000400012000000000000004000000000000000000000000000000000000000000000000000000000000000040000000000000000000000000000000000020000000BCFF00003D
:8070800000001080000000020000080001000010000244000000012020040000000000000000000000000000000000000480001000024000020001200080000010000000000800000000010000F0FF00000000002000008000000002002000000000000000080000000000000000000000000000000000000000000000000000000000000F
:807100000000000000008000000000000000000000000000000030FD000000000000000000000000000000000000000010000010000000000000000000000000000000000000000000000000000000000000000000000000000000000000000004000000000000D8FF1C000000040100000000000000000000000000000000000000040042
:807180000000000000000000000000000000000000000000000000000000000000000000200000000000000000000000000000807AFB080000000000000000000000010000000000000000000000000000000000000000000000000000000000000000000000000000000000000400000004000000000000000000000000000000C0FA00AF
:80720000000080000000000000000000000000000000000000810000000000000000000000000000000000000000000000000000000000000000000008000000000000000000080000000000000090FE000000000000000000000000001000000000000000000100000000000000000000000000000000000000000000000000000000005E
:807280000000000000000000000000000000400000000000000000C8FF020000000100000000000000000000000000000000000000000000000000000000000000000000000000000000000000080000000000000000000000000000000000000000000000010000A0FD0000000000000000000000000000000000000000000000000000DE
:807300000000000400000000000000000000000000000000000000000000000044000000000000000000000000000000000000008072F900000000000000000000000000000000008000000002000000000000000000000000000000000000000000000000000000100000000000000000000000000000000400400000000000400060FC68
:80738000000000000200000000800000000000000000C00000000020000480000000000000000000000000000000000000800018000240000800012000000000000000000000000000000100000000E8FE0000000000000002000000004510000480000000024000000001000004000000000000000000000000000000000000000000009B
:8074000000000000000000000000808200000000000000000000000010F800000000000000000000000004000000000600000000030000000000000000000000000000000000000000000000000000000000000000000000000000000200000000000000000000000098F800000000000000060000000000020008800700001600000000B6
:807480000300000C0000000000000000000000000000000000000000000000000000000000000000000000000000000000000000000000FD00000000000000000000000020000004000000000800400000000000000000000000000000000000000000000000000000000000000000000000000000004001000000000000000000000028AB
:80750000FA00000000000000000500000000020030000300000C00830000000200301200000000000000000000000000000000000000000000000000000000000000002001000000000000000000000020FF0000000000000006000000000300003C1004000010400300000300003C000000000000000000000000000000000000000000D9
:807580000000000000000000000000800100000000000000000000000060F9000000000000001800000000080000300004000010000300000C0000300000000000000000000000000000000000000000000000000000000000000000000400000000000000000000000080FB000000000000001802000000481000300002000008000000E3
:80760000000C0100300000000000000000000000000000000000000000000000000000000000000000004404000000000000000000000040F800000000000000000000000000000004800000000240A00000000000340000000000000000000000000000000000000000000000000000000000000000800000000200000000000000000031
:80768000C4FA000000000000000000000000000000000000000000000200000000003000000000000000000C0000000000000006000000000000000000000000000000000000000000000000000000000040FC000000000000000000000000000000088005000016000100000000003C000000000000000008000000000000000400000060
