:020000040000FA
:80000000FFFF62FF3900FFFFFFFFFFFFFFFFFFFFFFFFFFFFFFFFFFFFFFFFFFFFFFFFFFFFFFFFFFFFFFFFFFFFFFFFFFFFFFFFFFFFFFFFFFFFFFFFFFFFFFFFFFFFFFFFFFFFFFFFFFFFFFFFFFFFFFFFFFFFFF800C9001324006C840110051200A4481A80255048A4011280245804C9001000000000000000000000000000000000C90013200C8
:8000800026C80419280245A00814A82250044014882A0245A0089001A0FD0017E0025C800B70012A800A50012A4005B4800A50012A4005A8003FE0020000000000000000000000000000000012E0025C001DF0032E4005A80015A00554800AA002544005A80015E00298FF0000000000000000000000000000000000000000000000000079
:80010000000000000000000000000000000000000000000000000000000000000000000000000000000000000000000000000000000098FF0000000000000000000000000000000000000000000000000000000000000000000000000000000000000000000000000000000000000000000000000000000000000000000000000000009850
:80018000FF00012000048000100000000000000000000000000000000000000021200000000000000000000000000000000000002000040010180202010000000000000000000000000000000000280030FC0E01000400020104000000000000000000000000000000000000202C20000000000000000000004000000000000000200090EF
:8002000000844001080000000000000000000000000000000000008080BBFD0000048000100402402248200000000480100000004008000009200000000000000000000000000000000000002000040000100002510000000020000080000000004000000081A0010408D0FC00000000000040000083600000000000000002000000000208
:80028000000C08000000000000000000000000000000000000008000000000000000000000000000000000000000000000000184010400D0F800000000008020000080000000000000000002000000000000006200000000000000000000000000000000000000000000000000001000010000000000000000000000000000060000180065
:8003000028FC0000000000800400002120140000003011400000000008010024200000000000000000000000000000000000000008010000C014000120000000000000000602000000230200080000200000F800000020004804000982401000000000014002000000A2000028800100000000000000000000000000000000000008310257
:800380000000400000430000008081000000020000000001000A0044280038F800000C8001702006C00018000000003C9001000000C000000003E281000000000000000000000000000000000060003C1000F00006C800000000E001008007000000C0030000096000240038F90000300006000018080242000000003000040000000000C1
:80040000000008800100000000000000000000000000000000000080300000C0001000000000008001000006000000000300000A0840280088FB0000B020460104190120000A0000003009000200000010040000880100000000000000000000000000000000008010300000C02480100801000080010000260100000093000044001014D5
:8004800021A0FD0000048014900003400008000000000480100000000000080001A001040000000000000000000000000000000020880080001000004000000001000000000010000040000800810000040834FA0000000006C4000000000000000000000000020000000000000080010000000000000000000C000000000000000600009E
:8005000000000000000000000000000000000000000000000000010400040040F900003020000100180800020000000000000000000000001800008401002000000000000000080000000000000004000000000000000080000000000000000000000000000020060000180018FE00000001224028000013602200000030110002000000C6
:800580000000008C800130010000000000000000000000000000000008010016C41400001300002C080000000000000000236200080000200093FF000030011480201800080024000000800040020000000060102000000012000000000000000000000000000000000801000002040000000100000400000000C08400001000820A0000BF
:800600002800E1FF00003C900131001EC8037A000000003CA001000000000078000F68403C000000000000000000000000000000006000008007F08000C00300000F0000000000F00000C0037900090000240090FF000030000484001808036000000000300000020000000060000C000030000000000000000000000000000000000000AF
:80068000000006C00000000300000C0000000000C00000000360000A04002800D3FC000030220000489800836010000000300842000000000060000C020030080000000000000000000000000000008088000006C12000008300000C0200000000C0000000836010040000941090FC10000480001000024010081200000024821000000289
:80070000404068000120000400000000000000000000000000000000200801000000000240000000012000008000000002400308008120000408D0FA00000000000000000000020000000010080002000000006000000000000000000000000000000000000000000000000000000000000000000000000000000000000000030000010418
:8007800000040060FF0000008001C02000008240100000002C000002000000006000030000002000000000000000000000000000000000000000000000000000010000008000000000000000000020060000180028FA0C00008000000000001240020000001009400000000010640001800131010000000000000000000000000000000070
:8008000088000000000098022000002C080000000602005808006000088029200050FA0400000016C0220000912002000000A0104400009808A000042C00900001000000000000000000000000000000000100000000000001400000808401000010000040000300020A0090280028FC00000C8807F20006C40138100000001880010200BE
:800880001EC00018200FE4013C20000000000000000000000000000000600001000000001ED00000000F608000800704001E5003782009E0012400B8FB0C00300006C0801810000000000000301000020018008000000C800130000000000000000000000000000000000080000000000018000000000C0000010006000018000060000A91
:800900008001280078FC0000302106C0041801A00010000000180100000018000900000C8045B0080000000000000000000000000000000010000000000058040B01002C0208000016010058040060112490451404F0F9000004804014001A40000800000000048040000000400304008120008400000000000000000000000000000000BD
:800980002000048020020000400000000000000080000000825020080081A0010408E4FF00000000000000000000000000000000080002000000020000000200000800000000000000000000000000000000800000000000000000000000000000000000000840000100018401040090FB00000000043000060000180000000020100000F0
:800A000000000003000008000020100000000000000000000000000000000080000000000000008000000000000000000000008001002006C0011800B0FD000000001411000008130900000000000110020000005300002882012102000000000000000000000000000000001000001002000000130000000000000006020080080260006A
:800A800008A001200013FA0000004202C1101804086004000000300840020000006300002402089000000000000000000000000000000000000831024002000000100000000000000040020000900200840A8001280079FD00000C8003F00004C0037A200000003C8001000000C003000007E0011D20000000000000000000000000000055
:800B00000060003C9001000000C00301000000000080070000064002780009C0012400D0FD0000300000C0001804036000000000300800020000000302000080010000000000000000000000000000000000000130000400000000030000000000000006000000880260000A80012800EBFF0000302010C4000000A36000000000300244F1
:800B8000000000000B00000081510008000000000000000000000000000000000831000002000000A300000000000000460100000081601424A4011422F8FC100004800010000240000800000000348020020002401002008120052402000000000000000000000000000000200801800000000040000000000000000000000002402008CC
:800C0000008120000408A4F800000000000200000000000000000030000000000000000000008841300800000000000000000000000000000000000000000000000000000000000000000000000040000100010400040070F80000300004C00000C00000000000003800000000001000000008000000000000000000000000000000000042
:800C8000000000000000000100000080000000000000000000000080010020060000180090FE0C0000091401240040006022000000340000020098001001002882489020000000000000000000000000000000008800000600000000130000000000000000000018080260000880092200C3FE0400300202C108400823042200000030003C
:800D000040020000081004002402412011000000000000000000000000000000008800002000000000200100000000000000000000880200020A0080280029FC00003C8803F02006C003780000000038800100001EC00000000760000C000000000000000000000000000000006000008007020000C003000000000000000000001E400223
:800D8000784009E001240098FE0C00302000C0001800036010000000300000000018048000000000012000000000000000000000000000000000000100000601000000830000000000000000000018840261100A8041280053F80000300040C4421802036004000000340012020018010900004008508008000000000000000000000000AA
:800E000000000000080100460000000023000000000000000000001801216004048111140548F8000004802490480240124804010000048040020002400000000120083400000000000000000000000000000000200000800000000040000000012000000000108002402008008120001408B4F80000000006C400000083601000000000CC
:800E80000000000000000000000000403000000000000000000000000000000000000000000000000000000000008001000000000000400001000104002400D8FD0000000000010018008000000000000000000000001000000003004130000000000000000000000000000000000040000000000000000001000000800000000000008064
:800F0000010020064000180010F80800000022402880042120140000003011000200980000000001000930000000000000000000000000000000008001000046010000002000002C080000000000449802026000082000200043FA0000000114802018018240108C0800001110000080000B00000C84000011000000000000000000000008
:800F800000000000009000002000000000400000400000000000000240800200010A8051280009F800000C880131001EC40018000F00003C800102001EC80301000FE0400C00000000000000000000000000000000E001008007020000C00000000F648000000030401E5002784009C0012C0020FC0400300004800018100240100C000040
:80100000300800020018040001000C000000000000000000000000000000000000008041000006010000000300000C0200010000804018840260100A8001282083FE0000B00820028058002002040C0000B00042000058002000000C004400000000000000000000000000000000008005000016000000000801002C000800000000005843
:8010800000916001448801240140FC100004800010080240100A08000000048040120002400802000120003400000000000000000000000000000000200000802012000200000000212000000000100002402008008120003400C4FC0000000000008000000000000000000000000000000000000000000030000000000000000000000075
:80110000000000000000000100000000000000000000040000000000000040000100010400300018FA000030000080200000824010000000000000000000100000000C80813800000000000000000000000000000000000000000000000000000000000000010000000000800100000660003C00C0FA0C00000A008004000012400200001F
:8011800000301110C24498004000008002043400000000000000000000000000000000008800001002005808000000000408000000C040180802000008200034001BFF040030064042048004912002000000001220020200098200000C823100110000000000000000000000000000000008010040C24840000000004084910000000004F4
:80120000408002600C0A8009300039FF00003C8001702006C00138100000003C8001F0801EC00000000FE0010C000000000000000000000000000000006000008001F0001E10000000036000000000F0801E5002780009C041380078FC0C0030080601401800000020000000300804C02018040001000C88410000000000000000000000A1
:80128000000000000000008000000000001804000000000800000000C02018840202200A80013000E3F8000030024600005804800002000000300000C20018000000008C80110000000000000000000000000000000000001100000402441800000000840084000000C0001800010004448401300090FC00003480001000024000080001AB
:8013000000000490201200024003680089210004000000000000000000000000000000002008018020120002400000000120000000001000024020082281A001841098FC000000000000000000000000000000000000000000000360000C0000000000000000000000000000000000000000000000000000000000000000000000000000B9
:80138000000040000100018401000098FE00000CA001300018C4001800000400301000020000100070000062000C0000000000000000000000000000000000000000000000000000000000000000000000000080014000060000100898F90000008200100000410008008C0000A00000C0441801006800242000000000000000000000103B
:80140000000000000000000808010000C24018080801002C0800000000C0821808020008080000000002FC0000300A26C442181163604400040030024000408000000004288005300A020000000000000001000000000000008800001000040009400000808009010000000480800260020A0044300120FA0000088007F0001EC003780008
:801480000F00003C8801F2001EC800192003E2813C000400000000000010020000000000006800008001F2401EC00000000FE801000000F0801E500278100960003C1090FE0000300806C00018040360000C0200300004C020180400020008800130800400000000000050020000000000000800000000C22018040301000C8201000000CE
:80150000C02018840260000A08403020C1F80000800006C00058000360004C0000300910C204980020000000820130000400000000000000020000000000008088000002C00498002000004C8001000000C0049800096111240010B000B0FB1000000000000000000000000000000000000000000000000000000000000400000000000098
:8015800000020000000000000000000000000000000000000000000000000000000010020040080000214CF8200004800010000240000800012000008000100002400008000120000400000000000000000000000000000000200004800010000240000800012000048000100002400008000100001000C8FC00000000000000000000003A
:801600000000000000100000000000000000000000000000000000000000000000000000000000000000000000000000000000000000000000000000000000000000010088FF2C0004800010000240000800012000848000100002400008000120000400000000000000000000000000000000200004800010000240000800012000048081
:801680000010000240000800012004040023FC040000040000000002000000000000000200000000000000000000000000000000000000000000000000000000000000000000000000000000000000000000000000000000000000080110A1FC20001000024000080001200001200010A00010000240002000048000100000000000000014
:80170000000000000000000000200004800010000240000800012000048000100002000108000480000000C8F80C0000000000000000000000000000000000000000000000000000000000000000000000000000000000000000000000000000000000000000000000000000000000000000000000000010E3F9200000800010000040007F
:801780000800012000048000100002400008000120000400000000000000000000000000000000200004800010000240000800012000048000100002400008000120000402F8FD000020000005400002000000000000000000000000000000000000000000000000000000000000000000000000000000000000000000000000000000003D
:801800000000000000000000000000000000A8FD00000000000000000000000000000000000000000000000000000000000000000000000000000000000000000000000000000000000000000000000000000000000000000000000000000098FF0000000000400000000000000000000000000000000000000000000000000000000000EC
:8018800000000000000000000000000000000000000000000000000000000000000000000000000000200000B8FB000000000400000000000000000000000000000000000000000000020000000000000000000000000000000000000000000000000000000000000000000000000000000000001000000010A8F90200001000000000003C
:80190000000000000000000000000000000000000000000000000000000000000000000000000000000000000000000000000000000004000000000240000000000000000000E8FB0000001000000000000000000000000000000000000000000000000000000000000000000000000000000000000000000000000100000000000000002D
:8019800000000000000000000000000000000098FE00000000000000000000000000000000000000000000000000000000000000000000000000000000000000000000000000000000000200000004004000000201000800010000000000000048FF080000000240200800802010000000000000010008000000000002400000000000004B
:801A0000000000000000000000000000001000000100000002000000800000000000000000000800008000040058FC000000800010800200000A40000000A000A28422020081200000082801000000000000000000000000000000000045A405000400D04A000000022080000001020004800008000020280400C8FD000000808C800150B0
:801A800000020810000220000802410608000320418C140021000000000000000000000000000000000040A000210110E29364020000020000000200100800002010000000000088FA0000000000000000000000400008000020048400100002400008000000000000000000000000000000000000000040000000010000000000000002E4
:801B00000000000200000800000810000000000058FC08000080004100080002000000000001000000000000010000040000100000000000000000000000000000000000001000000020000240000000000000000000200000000000000000008015FA00000000000000000000000000000000000000000000008000000000000000000065
:801B800000000000000000000000000000000000000000000000000000000000000000000000000000000000000010FF000000201020000000000000000000000000000000000000000000000000000000000000000000000000000000000000000000000000000000000000000000000000000000000000000000A8FC00000000000000E2
:801C0000000000000000000000000000000000000000000000000000000000000000000000000000000000000000000000000000000000000000000000000000000000000100000088FF100000000010000000000000000000000000000000000000000000000000000000000000000000000000000000000000000000000040000000007C
:801C800000000000000000000000000000040000008CFE02000000000000000000000000000000100000000000000000022000000000000000000000000000000000000000000000000000000000000000000000000000000000000000000000008020FC0800000000810000000000000000000000000000000000000000000000000000FD
:801D0000000000000000000000000000000000000000000000000000000000000000000000000000000000000000002AFD00000000000000000000000000000000000000000000000000000000000000000000000000000000000000000000000000000000000000000000000000000000000000000000000000000098FF000000000000A5
:801D800000080000000000000000000000000002000000000000000000000000000000000000000000000000000000000000000000000000000000000000000000000000000000000030FD0000000000000000000080000000000000000000000000000000000000000000000000000000000000000000000000000000000120000000000B
:801E000000000000000800002000000000001000A88008FD00000000800000000000020100000000000000000000000000000000000000000000000000000000000000000000000000000000000000000000002000000000100000000000000000000090FE0000000000008000000000000000000000080000000000000000000000000034
:801E80000000000000000000000000000000000000000000000000000000000000000000000000000000000000000000DCFB000000000000000400000000200000000000000000000000000000010000000000000000000000000000000000000000000000000200000000000000000000000000000000000000000000B9F900000008002A
:801F00000000000000000000000010000000000000000000000000000000000000000000000000000000000000000000000000000000000000000000000000000000000000000000000080FF0000000000000000000000000000000000000000000000000008000000080000000000000000000000000000000000000000000000000000C2
:801F80000000000000000000000000000000000000000090FF000000000000000040000000000000000000000000000000000004000000000000000000000000000000000000000000000000000000000000000000000000000000000000000100000000D8FA00000000000000000000000000000000000000000000000000000400000037
:80200000000000000000000000000000000000000000000000000000000000000000000000000000000000000000002000F8FD000000000000000000000000000000280000000010004002000000000000000000000000000000000000000000000000000480000000020000080000000000000000000248000000000000F0FA000000000F
:80208000000000000000000000000000000200000000010000004000080000000000000000000000000000000080000000020000440001000006000000000000000000000080004000000000FB0000000000000000000000000000000000000000004000000000004000080000000000000000000000000000000000000000002000000065
:80210000000000000000000000200004040010100000000058FC0000000000000000008000000000000008050000080046000000000000000000000000000000000000000000000022000005100020060200000801030000008101220200004000200000008AF800000000000000000008000000000000000000004000000000000000802D
:802180000000000000000000000000000000000000004000000000000000000000000000000000000000000000000000010818FE00000000000000000200080004000000000000000000800000040000000000000000000000000000000000000000000000000100100000000000020000000000201000011000000000040058FB0000043F
:8022000000000000000000000000000000000000000000000000000080000000000000000000000000000000000000000000000000000000000000000000000000000000000000000000000058FF020000000000000000048000000000000000002100000004000003000000000000000000000000000000000000000000000000000000D9
:80228000000000000000000000000000040000100000000000F0FE00000000004100000000000000000010000041000800000000000000100000000000000000000000000000000080000000000000080000000001880000000000000204010010008000000038FF0200010001002000000120000000000000000000000400000004820084
:80230000080800000000000000000000000000000000000000004100000000000000000000000040000800002000000000008022FB000001800022800040800800000000080002220004108A00000128001C200000000000000000000000000000004000000000140004005040010244000000001000068800082000C0001000E0FB00004D
:802380002080A0A02C18830050080C0121100806410000040A40A40800218420000000000000000000000000000000804148000744180811420001048240000000404011060810A8042000200080FF000000000000200200000000040000080801410000040000000000000000000000000000000000000000000000804000000240000864
:8024000000000000048240000000400000100000000800000000A0FC000010008020000404001010024220000002000000800010000240400000000000000000000000000000000000400000800000200000420000000000000000000010040000400000001000D0FF1000800000000000000000000200000000000000000000000000006B
:80248000000000000000000000000000000000000000000000000100000088000000000400000001000000800000000040000004BCF8000000080800000000003000000000180000000004000000000000000000000000000000000000000000000000400000000000000080000000000000000001000000000000000000000000A8FC0015
:80250000000000000000200000000000000000000000000000000000000000000000000000000000000000000000000000000000080000000000000010000000000000000000000000200000000000FF0000000001000000004000000000004000000000000000000000000010000000000000000000000000000000000000000000000073
:802580000000000000000000000000000000004000000A0120100420F800000000008000040000000000000000000000000000000000000000000000000000000000000000000000000000000000000000000000000000000000000000000000000000000000000010FB000000000000000000000000000000000000000000800000000035
:802600000000000000000000000000000000000000000000000000002000000000000000400000000020000400000000000000000038F9000000000000020800000000000000000000200004000000000180000000000000000000000000000000000000000000000020000000000000020000000000000004000000000000000000B8FC1C
:8026800000000400000000420000000000000000000000000000000000000000000000000000000000000000000000000000000000000000000000000000000000000000000000000000000000000098F9000000000000000000001000000000000000000000000000000000000000000000000000000000000000000000000000000000F3
:80270000000000000000004000000000000100008000000000001400D0FE00008004000000000000000000000000000000000040000000000000000000000000000000000000000000000000800000000000000800000000000000000000000000082000000000000010F900000000000000020080000000000000000000000000000000B7
:80278000000000000000000000000000000000000000000000000000000000000000000000000000000000000000000000000000008090FD080000000000002000000000000000000000000000000000000000000000000000000000000000000000000000000000000000000000000000000000000000000000000200000000000000F4AE
:80280000FB0000008000D0000200006800012000000000100002400008000D2050040000000000000000000000000000000000000000001000020000080041241100000010000240030840002000010038FB0000000000C00018000060000C8001000000000000000000000C00000000000000000000000000000000000000000000000055
:8028800000001800000000008081000000000000000008000020000000B8FF000000000000800008000020000400010000000000000062100C00410000000000000000000000000000000000000000000000400000000000080240000000008000D0805800006001000068FF0000000000C00818000060004C8011000000C0820000230078
:80290000040C000530200000000000000000000000000000000000000000C0021802006041888004000000C00858000820000080000000D8FC0000000006C04418110060224C82110200000048000320611180904800420000000000000000000000000000000000000000004058040000208400110000000048000983500000400100000A
:8029800008FB000000800734001E000018000FE001000000F00006C003780003E0003C000000000000000000000000000000000000000000F0001E00007800076240000000F0001E800040000000010000C0FE0000000006C04018080060200C8081000000C0001800036020000000300000000000000000000000000000000000000000A9
:802A000000C0001804006000000001000000C00018008350200040010000F8FA000000000620000401001001024410000000C024980293600100004030090000000000000000000000000000000000000000C0248000006012800828000000C02498040020000080000100C0FB00000080001000924800080089200000800010000240004F
:802A8000080001200024000000000000000000000000000000002000000000000002400000000120000000001000024000084001200001008CFC0000000000C0000000006000000400000000000000000000000000003008000000000000000C0000000000000006000000000000000000000000000000000000000000000800002000002C
:802B000000A8FA0000000000004018000000000C008000000000001800000240000000000000000000000000080000000000000004000000000000000400000003600000000000000000005800006401000068F8000000000000021002000020288411000026C28200022360040C8805110A000000000000000000000000000000800902C2
:802B80000000000098000B0100012000000000C01098080020004C8000000003F900000000C6C08418092360240C840901002000041808100020000490A0000000000000000000000000000000000080000000000018050800002C800901000000400008205100804401000039FD0000008007F0001EC0037A000FE001008007F2801EC0FC
:802C0000037A000FE0010C08000000000000000000000000000000E00100000000001EC00302000FE401000000F0001EC00040000F00010000F8FD0000000006C04018000360200C8281000006C00018000360000C800120000000000000000000000000000000008001000000000018040300000C8001000000C00018000350000C4001C5
:802C8000000083FC0000000006C00858080360040C8001000006C12018118360100C824100100000000000000000000000000000008041000000000058008300000C8001000000C02018040B22840C82100100F8FB100000000010000200000000002000008000100802400008000120800400000000000000000000000000000000200000
:802D000000800000001A40000000012000048000100002400008400020000500A8FE000000000000000000000000000000000000002000000000000000000000000000000000000000000000000000000000000000001800000000000000000000000000000008000020000000A0FE000000000000000000000000000000000000802000D1
:802D8000C00000400000410C00000000000000000000000000000000000000000002001E000000000080010C000004000008005800006001000050FD0C0000000000000000000000000000000026820000000060040C080504000000000000000000000000000000000000000040000018000B0100000050000046C010180100200000800F
:802E000000B01078FB0400000000C022580000000000800900001040220000A300012080483012000000000000000000000000000000800500001002001800000100008141300A40084800092050000040010012F8F80000000000F0001E0800000000E041008007740006C40378400FE8003C00000000000000000000000000000000E056
:802E80008100800100001CC003000003E0013C8007F0001EC08040000000013C0050FF0C00000000C0001800000000008001000006000018080360000C00003000000000000000000000000000000000800100000602001A000300000C8081300006C0001800035000004001310068FE0000000000C0001800000000008001000016012486
:802F000018010360112C022830000000000000000000000000000000008001000000000018008B00008C8209300016C1225804032408008000B00828FB000000800000000040000800012000008006D0000240000800892021040000000000000000000000000000000020910080000000020000000081218400800000000240000840003A
:802F80002000010020FD000000000600000000030000008001000006C00000000000000C82010000000000000000000000000000000000800000000000001800000000000000000000000000000008000020000000B8FC000000000004000000000100000080000007C00018C00000000000400C00000000000000000000000000000000D0
:80300000008100000000000000000000080201000000000000000058000060010000E8FA0C0000002600000000030000008009008006C0008004000000048110040000000000000000000000000000000080110000260800980200000088004100001602009808002000008000000060F90400000046000000002360120C8045000006007F
:80308000281801830012881045302100000000000000000000000000000000050000100000580400000084804400002000000009005000004001000000F90000008007020000C0007A000FE20100000730001EC40318000360003C00000000000000000000000000000000E08100800704001E0000000007E20000800704001EC00041003B
:803100000000010000E0FD0C00000006020000000361000C800100000600001800036000080081300000000000000000000000000000000080010000060000180400000000000000000600001800035000004001000090FF0000000041000000802360000C408000800600009810036024200208300000000000000000000000000000002F
:8031800000C02900004601008000000000800420000046010018050B2120008084000068FD3000008024928400401209000D2011008080D0000240020801012000A420000000000000000000000000000000208904800010001244000000012000008000000002400008400120000100D4FB0000000000400000000060000C008000000002
:80320000C0000000830010000000300000000000000000000000000000000000000000000000000000000000000000000000000000000800002000000050FB000000000680400000830020008481000006C0000000004110036000000000000000000000000000000000000080410000000000180400010003000000000000000000035834
:8032800000006001000068FA0C00000084C00800000A60020C0005000004C2000000094000002000100A0000000000000000000000000000000001304126C88458000B00000100000000160200581080200000800000009BF88491000006848800002361004C8481000016002200100220108C8231A000000000000000000000000000001D
:8033000000008091001220004498200800002C0408000040020080002350008C48010000F9FAE001008007F00000C003781003E001008007310006C00039000FE0010C08000000000000000000000000000000E0013C8007F2001EC00302000F604000800700001EC80341000F00010000E0F98801000006C08000008360000C800100008E
:8033800006000018000200000C800120000000000000000000000000000000008041300806C12018008300000C8001000006010018040351000C400101004BFA9001000026C4040000031042428449000006010058048000100C800180200000000000000000000000000000008009300246C00898082300000C801101004600001801233F
:80340000200A0C80100000A8F810000000001000024000480001A00104801410000240204804012000840000000000000000000000000000000020000480000000024000080049200000800000000240000840012000050040FC0000000000C00000000000400C80010000020100000080601000000000200000000000000000000000003C
:803480000000000000000000000000000000000C080000000000000000000800002000000028F80000000000004000000060400000000D8005300018100200100C6200200000000000000000000000000000000000000000000400000800012000600000000002000000005800006001001090FF0C00000000C00400002342042090110025
:80350000000211008000122102402000A0080000000000000000000000000000000000B010160000180023000404220000004600005810132200008000B00032FA0400000000C00018036060208C8489300844C01818010941144C80051101000000000000000000000000000000800500101000000008080021488201010000020000094E
:803580000051008C4801001288F80000000000F0201EC00378000F60003C0003F2001ED00118000FE2011C08000000000000000000000000000000E0813C800704001EC0031A0003E00100800700001EC00340000F00013C0090F80800000000C00018000361100C8401300006C00018000040000C8001002000000000000000000000008A
:8036000000000000800130080601001804830020088401000006010018048350000C4081300861FC1000000000204018000B60008C40203000A3C00018059000114C810180000000000000000000000000000000008001B00016000058000B6000808001000016000058000B20240C8008B00070FF3000008000900800400008000120003C
:8036800000804010001A400308000D2000040200000000000000000000000000000020000480000000024000080001202034800000000A50000840002000050094FC0000000000004000000060000C8001000000010000000300000C0000001000000000000000000000000000000000000000000000000000000000000030000000000AA1
:8037000000000800002000000060F80000000000C4200000000020000400000004300006800318000E000020000000000000000000000000000000000000002000040000000001200C000138000004001E000058000060010010F8FA0C00000046800400002362000C00280000A0100040480308000D8005A108000000000000000000004A
:8037800000000000008011B100160000581023000040014134001600000000002000008000B0005BFB8491000000C24000002064410C8109010026C104580400604480108810010000000000000000000000000000000008011020000000212001210C844480001000001400105000004001000181FEE001008007F00000C00378000FE036
:8038000001008007F04004C000790003E0011C08000000000000000000000000000000E0013C800702001EC00318000FE0000C9007040010C08040000000013C2040F88801000006C10000000362200C8481000006C000180400600000804100000000000000000000000000000000008001300806010018048360200C0200000006010014
:803880001400035020004081300863FC9001000006C08400000B1004828011000046C100000100600000800100090000000000000000000000000000008021300006000018000300044C0080000006000008058B2002008010300048FF0000048000100002400008000100003480009000024003080021201104000000000000000000009B
:80390000000000000000200004800000001A40000800492031348000000002500008400020010500A8FF000000000000000000000000000000300000C020000003000000824100000000000000000000000000000000000000000000000018000000000C84013000000000020000080000A000000060FC0000000000C000000000002000F7
:803980000400380000002000800318000800403008000000000000000000000000000000000000000004001C0000012000004030000004001600035800006001000028F80000000000C00000000060048C0000340026420258500308000890100000000000000000001000000000000000881131041600001A0023000404820430001600FB
:803A0000000800A02000008000302190FF00003010C6000418032360248C040000024082288000086101840145300202000000000000000100000000000000848000000200180010602148021180002000001400135000004001800038FE00003C800730801EC0037A000F00000C900730001EC80078200760003C080400000000000010E8
:803A800002000000000000E8013CA00700001CC0031A000360400C9007040010C00342000040013C2060F80000300006002018000360400C0000000006810018040060000000413080040000000000005002000000000000880130080601001800830020080081000006010014008350200040813008C0FB000030000600081800036000BD
:803B00004C100000002600209800006000000200B010040000000000000002000000000000800132012600001800130000000104000026000008042320040000013001E8FD100000000000000000000000000000000000000000000000000000000000040000000000000002000000000000000000000000008004000000000000000000AF
:803B80000000802000000000000000004CFF20000480001000024000080001200004000010000240000800012000040000000000000000000000000000000020000480001000024000080001200004800010000240000820012080040030FF0000000000000000000000000000000000000000000000000000000000000000000000000047
:803C0000000000000000000000000000000000000000000000000000000000000000000000000000000098FF2C0004800010000240000800012000048000120002400008000120000400000000000000000000000000000000200004800010000240000800012000048000100002400008000120000400C3FA04000000000000000000009A
:803C80000000000000004000000000000000000000000000000000000000000000000000000000000000000000000000000000000000000000008004400001000008020059FD20000480001000024000080001200010000244000808012000048000100000000000000000000000000000000020000480001000024800080004800010800B
:803D00000010000800012020018000040060FC080000000000000000000000000000000000000000000000000000000000000000000000000000000000000000000000000000000000000000000000000000000000000000000000000000A3FC30000480001000024000080001200004800010000040000800012000040000000000000032
:803D800000000000000000000020000480001000424800080001200004800010000200000800012000040028FB00000000000000000000000800000000000000004004000000000000000000000000000000000000000000000000000000000000000000000000000000000000000000000000000000000058FF00000000000000000000D3
:803E0000000000000000000000000000000000000000000000000000000000000000000000000000000100000000000000000000000000000000000000000000000000000088FF000000000000000000000000000000000000000000000000000000000000000000000000000000000000000000000000000000000000000000002000009A
:803E80000000000000000000000000000000B8FD060000000000000000000000080000000000000000000000000000000000000000000000000000000000000000000000000000000000000000080000000000000000000000000000000000F8F90000000000000000000000000000000000000000000000000000200000040000000000E2
:803F000000000000000000000000000000000040000000010000000000000000000000000000000000001000D8F90000000000000000000000000000000000000000000000000000000000040000000000000000000000000000000000000000000000000000000000000000000000000000000000000000009CFB20000000000000000460
:803F800000000001000000000000000000004000000080000000000000000000000000000000000000200010020020080800000000000000000000000004000000000000000030FE0000000000004000000000000000000000022000000000001004004010000000000000000000000000000000004020080000200000000020000082403C
:80400000000000010008008020000000000000C8FD400000000200800808000000AA0105608000100000000110404181800500000000000000000000000000000000A0800510011040840A0A080A00280011000044000208002A00008040100010FC08000000111101000001B5002000000080180000004000000020400690060000000036
:804080000000000000000000000000004100008600000212004201081421200466CA180002806808158241000030F902000000000100000001100000000000000000000000000000000000040000000000000000000000000000000000400000020000000000000000000000000220000000004200080241000030FA0E00000000000000C5
:8041000000000000000000000000000000000000000000000008000000000000000000000000000000800000000402000004004000080041202004802000100020100080000000A0FF0000000000000000000001000080000000008000000000000000000000000000000000000000000000000000000000040000000000000000000000DC
:804180000000000010000000000000000000000040FE000000000000000000000000000000000000000002000000000000000000000000000000000000000000000000000000000000000000000000000000000000000000000200000000000000B8FD000000000000000000008000000000400000000000000000000000000000000000F8
:8042000000000000000000000000000000000000000000000000000000000400000000000000000000000000000090FF10000000000000000000000000000000000000000000000000000000000000000000000000000000000000000000000000000000000000000000000000000000002000000900008004000094FD000000000000005D
:804280000000000000000800000008020000000000000000000000000000000000000000000000000000000000000000000000000000000000000000000000000000000000000000B0FD00000000000000000000000001000000000000000000000001000000000000000000000000000000000000000000000000000000000000000000FD
:80430000000000000000000000000000000000000098FF000000000000000000000000000000000000100000080000000000200000000000000000000000000000000000000000000000000000000000000040000000000000000010000000000000A0FA180000008000000000000000000000000000000008004040080000000800000054
:804380000000000000000000000000000000000000000000000000000000000000008000100000000000000000000050FE00000000004000000040000000000000000000000000000000000000000000000000000000000000000000000000000000000000000000000004000000000000000000000000000000000098FF000000000000C4
:8044000040000000000000200000000000000000000000000000000000000000000000000000000000000020000000000040000000000000002000000000000000001000000000008010FE000008000000000000000000000000000000000000000000000004000010000000000000000000000000000000000000000000000000000000A2
:8044800000000000000000000000000000000000000058FE00000000000000000000000100000000000800200004000000002040000000000000000000000000000000000000200000000000000000000000000020000000000000010000000000000028F80000000000000000000000000000000000000000000000000000000000000078
:804500000000000000000000000000000000000000000000000000000000020000000000000000000000000000000000B8FD40000000000000000000000000400000000000000000000000000000000000000000000000000000000000000000010000000000000000000000000000000000000000800000000000000090FA0000000000F9
:804580000000000000200000000000000000000000010000000000000000000000000000000000000000000000000000020000000000200001000000000000000000000000000080000008FD0000000000000000000000080000000000000000000000000000000000000000000000000000000000000000000000200000000000000000CA
:804600000000000000000400000000000000000000001058FC000000000000000000000000000000000004000010000000000000000000000000000000000000000000000000000000000400000200000000000000000000000010000000000000000000D8F910000000024000080001200004800000000020000080000000010000000037
:8046800000000000000000000000000000000080000000020000008000200000000000000100000000000000020000080068FD000000000000000040000000000000000000002000008000000000000000000000000000000000000000000000000000000000000000800000000000000000010000000400000000000008A0FC000000001F
:80470000000210048000100002002000000001000000000000000000202000000000000000000000000000000040000008010100001000100000000000000004000000040000000000000028FA0000000000000300000000001000020000000000000000000000000000000000000000000000000000000000000000002000000000000067
:80478000000000020000000000000000008000000000000030FE00000000000000000000022000000000000000001000000000000000000000000000000000000000000000000000000000000000040000000000200000000000000000002080000001000028FB020000800000000000000000000000000000000004000000000000000069
:804800000000000000000000000000000000000000000000000000000000000000000200000000000000000000000000000058FD000000000000000000000000000000000000000000080000100002000000000000000000000000000000000000000000000000000000800000000000000000010000000000000000000008B0FE40000848
:8048800000020000000800000000000000040000000080002200040040200000000000000000000000000000000000001000024100000081200000020000000201000000000000000000100098FB18000000010000000000000000000100800040000010800000000000100800000000000000000000000000000000810000000000000005
:8049000000100004004000000000000800002000048000008088F9404008800100000008000000002000009000102000900013002A02C00C2000000000000000000000000000000020000908012214008000191001060001050102000A00000800012240080050F82002005284800012420040000800210008028B2008036260002C81013F
:80498000310400000000000000000000000000000000A016040201020000C3200E400000040702012014280520B0323480120830FE00000000000000000000000000000000080201200800001000024000080000000000000000000000000000000000002000040100000081200000000000000201100000014008000000100810FA000054
:804A00000000822000040400100002402000000040000084801000048200100800000000000000000000000000000000800008000000000042001000000000080000000800000000000000000078FD10000000090000020000000000000000000000000000000000000000000000000000000000000000000000000080000000010000002D
:804A80000000100000000000000120000480000000000000000024F80000000000000040000000001000000080010000000004000000C0000000000000000000000000000000000000000008000040000004000010000000000000200004040000000000000000B8FA00000000102000000000100002500000000000000000000000010087
:804B0000000000000000000000000000000000000000000000048000000000000000088000000080000040020008010200040000D8FE00000000000000000000000000000000000000000000000000000000000800000000000000000000000000000000000000000000002000000004000000000000000000004000004020020078FB023F
:804B8000000000000000000080000000000000000000000200006000000000000000000000000000000000000000000000400000000000000000000000400000000000000000000000000000000018FB0000000000000000000000000000000000000000000000000000000000000000000000000000000000000000000000000000000040
:804C0000000000000001000000000000000080000200000000000028FE000000000000000000000000000000000000000000000010000200000000000000000000000000000000000000600008000020000480000000000000000000000000008000000000000000F8FA0800000000000200000000000000000000000000200000000000D1
:804C800000000000000000000000000000000000000000000000000000000200000000000000000000000000400000002000000000D0FF00000000000020000001000000200000000000000000000000004000400000000000000000000000000000000000000100000400000000000000000000000000000000004000004040008050FC31
:804D000000000000002000000000000000000000000000000000000000000800000000000000000000000000000000000000000000000000200003000000000000000200000820008000000002200000FC00000000000000000000000000000000000000000000000000000000000000000000000000000000000000000000000000000020
:804D8000000000000000000000000000000000000000000000000000BAFD00000000000000100000000000000001000000000000000000000000000000000000000000000000000000000000000000000000100000000000000000000000000000000000000000000088FE0000A4800010001A400000000D0000240900100000000000007D
:804E0000010000000000000000000000000000000000000020000400101200004022680000200014020000004208000800000000241288FD0000102000000018000000000C0000100000C00000000000000000000000000000000000000000000000000000000000000000000000806000000000101000000008000060000000001000C87A
:804E8000FB0000200000A00000880200000C0000200000F00000000000000300000000000000000000000000000000000000000001A007200000008260000060003C0000000000000060000000002010E8FC0000300500400018400100000C0000B00800000000000000000000000000000000000000000000000000000000800930011038
:804F00001200000000600000000000000000000004000042000000300248FD000020004668009888010000400000201000600000000000000C020000000000000000000000000000000000000010800016C082000003022100804128000000008004000082000000202090FD00003CA007900006400200000304003C0000900000000000DD
:804F8000000F00000000000000000000000000000000000000E0813CA001E10000C001180000E001200000000006000068000000003C0010F8000030100680001800020000000000300800800000000000000C000000000000000000000000000000000000008001300006C10000008300000080012800000000000000600000000030100F
:80500000A0FA000038010640000410010000000000B80000400000000000000C000000000000000000000000000000000000008001310546C00000000B0000008001100000000040040000000000003801B8FE000024040010000240000000000000A4000010000000000000000000000000000000000000220000000000000031000000F1
:80508000105202004000000000000004820000001A00004842000000241140FF00000000000000180000000000000000080000000000000000000000000000000000000000000000000000000000000000000020000000000000000000100000001800000000000000000038FE0000300800B0000088020000000000301000A0000000007E
:80510000000000000000000000000000000000000000000000000000018007202000000000000000002C800100001C00006000000000300800F900002001004000404001000000000020020040000000000000000000000000000000000000000000000000000080090000101202000088000000000010000000001A000020240000002006
:8051800000EBFE0000B00000600018890100000000003009006000000000000000000000000000000000000000000000000000000030000016C1080000100100000000280016000000110040000000003012B1FD00003C200090001E400200000000003C0000900000000000000000000000000000000000000000000000000000E00100E3
:805200008001602000C0000000000000200007020004000048000000003C0060FB0000300800800018080200000000003000008000000000000000000000000000000000000000000000000000008001000006C100000000000000000028000600000000002000000000300843FE0000B0000040001801010000000000300400400000004A
:8052800000000000000000000000000000000000000000000000008005020006C0280000530000000000100006000000000020000000003001C8F9100000000010000240000000000000048000100000000000000020000000000000000000000000000000000000200000800010000040030000000000040200D0001A0000480400000079
:805300000000B0FF000000000000001800000000000000000000000000000000000080010000000000000000000000000000000000000000000000000000000000000000001000C00018000000200000000000E8FF0000000000A0000080020000000000000000A000000000000000C0010000000000000000000000000000000000000073
:80538000010000240000000000000000002C0000F0001C000060400000000000C8FB0C0000000040005848010000000000B04000400000000000000020000000000000000000000000000000000000800900002610000000A00000000000100000C0001A000020000000000000D0FE0400000000600018800100000000008000006000009C
:805400000000000000C00000000000000000000000000000000000000008000040C204000020000000000028000000108000004000000000000000F8000000000090001E440200000000003CA001900000000000000020010000000000000000000400000000000000F001018007E02000C0000100000000200000200004080048000000FA
:80548000000000A0FF0800000000800018000200000000003000008000000000000000000100000000000000000004000000000000008081000006C4000000830000000000280000000000000020000000000000D8FB100000000040000408010000000000B008004000000000000000A000000000000000000000000000000000000080D8
:8055000011000046C000000020000000000010000000000000002000000000000080F830003480001000124102000000000004800610000000006800002001040000000000000000060000000000000003840000101200004000080000A00104820600001A00004801000000040040FC0000300000000000080100000000000000060000D6
:805580000000006000008000000000000000000000100000000000000008000000000000000000000000800100100600000804000040000000000010FF0040000000B0001890020000000000000000A10000000060000040010C00000000000000000200000000000000E101008007200000800018000080012C80070000180400602000E6
:8056000000000000C0FD8C0900000040001041010000000000B040264000000000600000A0000000000000000000000A00000000000000008400001012000040000000008001100006000058000020040000000000AAFB0404300046680058800100000000008000066000000000002100C000300A00000000000000000000000000000088
:805680008805010006C10000006360100000102A000008001803004000000000302040FDE00135800790001EC80200000000003C9006900000000018000060013C000000000000000004000000000000006000008001E020008003780000600020000100001E000048000000003C00A8FD88010000068000180401000000000030000680A2
:8057000000000000000000800030000000000000000010000000000000008841000006C0000000036000000000280000000018040020000000003000F1FD902100000640001800020000000000300A004000000000000000200130000000000000000000000000000000008009000026C4000000036000000000100000000098000020007B
:805780000000003000D0FB300004000010000000000000000000048000100000400000000D000000000000000000000008000000000000000484008000D000004000000000000004020000001A400348020000000000F4F8800100000000000000000000000000000000000000000000000C00000000000000000000001000000000000033
:805800000000000000000000000000000000000000100000001800030040000000000050F80080280000A0000000000000000000000005B00000C00000000C00000000000000000000000000000000000000E501000000040000800000000000002C000000001CC0036000000000000020FF8C0110000040000000000000000000B0C00269
:80588000400000000000000C0000000005000000000000900200000000000004840000260022004000000000000010000000001A00032081000000000053FB8485180000600000000000000000008020036100000083000020040000000000000000000000000000000000008005000010C422000010010000000028000000000000104069
:8059000000000000000039FCE001240000900000000000000000003C8004900000C0030000030000000001000000000000800000000000000065400080073000008000000000000020000000000490004A000000000000E0F9888120000080000000000000000000300804800000000300000000000000020000000000000A01000000009E
:8059800000008041000006C0000000830000000000280000000000000020000000000000A2FB5010100000400000000000000000003002124100000003000000000000000800000000000012020000000000008601000026C828000003000000000010000000000000002000000000000024FB30000400001000020000000000000024818A
:805A0000001000020000000000A00100800000000000000040000000000000000084008000D00000400000000D000004020000001A000048080000000000D0FD0000000000000000000000000000001008000000000000000000800100000400000000000080000000000000000100000000000000000000000C0000001000000018000003
:805A80000000000000000018FF0080280000B0000000000000000000200805A000060000000000E0010080000000000000001002000000000000E801000000240000808000000E00002C000000001C000060000000000000E0FE8C11140000400000000000000000003081024000000000000000A001008000000000000000420000000009
:805B00000000000884000026102200400800000D000010000000001A000020080000000000C0FB8491180000600058000000000000002020036100180500000000004400000200000000000010010000000000008101000040C022000020000020080028000000000002004000000000000070FDE00124000090001E040000000000003C2C
:805B8000800490001E0000000000600000000000000000000020000000000000006A400080072400008080000003000020000000000400004800000000000018FF88012000008000180000000000000030100480001800000000000000008001000000000000C0000000000000008001000006C000000083000000000028000000000000C8
:805C0000002000000000000020FA900112000040001800000000000000B800124100180000000000000000000200000000000082000000000000008141000016C4280000000000000000100000000000000020000000000000E0FE1000040000100002400A000001000024880490421A4003680000A00534800000000000000088000000DD
:805C8000000000003000048000102200408800000D0000040200000002000048240020000400E4FB0000000000000018000102000000000000020000180003600000800031000000000000000022000000000000000000000000000000000000000C000000100000000000000000000000000070FE0000280000A0000008020000030000A8
:805D0000300005A0401C0003700000800138800200000000000040010000000000000400012000340000808000000C00002C000000000004006040000000000080FE0C001000004000180053000000000020900200021A000368000080293400040000000000000C040000000000008209300126002800400100000C0000100000000040B8
:805D800000002002000000302263FF0400180000600098000200000C0200300103A1000003400021000001028000000000000000000000000000000010080006800002000003000020080028000000001800004000008091004121FA000024000090001EC88300000F00003C8805B00006C000180000E0000C1000000000000000080000AE
:805E00000000000000E0813C8007202000808300000300002000000000060400480000E0013C0098FA0800200000800018080300000C00003020028000000000000000800100000200000000000002010000000000008201301006800000000300000000002800000000000400200000800130208AF91000100000400004818300000C0008
:805E8000003002148100000000000000C0440000000000000000000000000000000000800932001608200000A30000000000100000000080000020000080013002DCF93000040000100002404200000D000004800600001A400308000D2021340000000000000000000000000000000020000080005002004000680001A00124020000005B
:805F00001A0000282000A0010400A8FC0000000000000000000000000C0000000006000018000300000C00003000000000000000000000000000000000000000000000200000006000008001101000000018000060000080010000C8FF0000290000B00000080300000E0000000006010018800318000E80413000000000000000000A0077
:805F800000000000000010000100000420000000700003C0012C000000001C0000200000E001000008FF8C0514000040001801A200000D0000B04006000018400300000D0005300000000000000000100000000000000088090000260002000000680000A00110000000001A000060820080013022A0FF0480180000600018090B000040F0
:8060000000000012200100000340601420840500000000000000000010000000000000000800000040C80800001001212C02102A000000004010002000000080000670FDE00124000090001EC00302000304003C8007000006C000780003E0010D10010000000000009400000000000000EA81008007702000C00018000F60002800000061
:806080000004000038000060003C00A0FA8841200000800018000300000000003008060100000000600000800100800200000000000050010000000000008801000006C20000008300000C000028000000000000002000000000300008FE9009100000400098088B00000000003001160000000000600000805100000400000000000008C1
:80610000020000000000008401020046C02800000300000C000020000000000000002000000000300560FF100000000000000000000000000000000000000000000000000000000000000000000000000000000000000000000000000000000000000000000000000000000000000000000000000000CCFB200004800010000240000800B0
:8061800001200004800010000240000800012000040000000000000000020000000000000021000480001000024000080001200004800010000240000800012000040088FC00000000000000000000000000000000000000000000000000000040000000000000000000000000000000000000000000000000000000000000000000000092
:80620000000000000000000000000000D8FF2C0004800010000240000800012000048000100002400008000120040400000000000000000000000000000000200004800010000240000800012000048000100002400008000120000400A3FC0400000000000000000000000000000000000000000000000000000000000000000000000050
:80628000000000000000000000000000000042000010020000000000214000428010200000000000000061F9200004800010000240000800042000048000100008000120000400001000000000000000000000000000000000000004000000000200002000048000000000020000000009000100000400C0FF080000000000000000000029
:806300000000000000000002000000000000000000010000000000000000000000000000000000800000000000000000010000000000000000000008000000000000010092FE300004C10010040340100C00012000048020100403400008000120100400000000000000000000000000000000200804808000100240100800012000048400
:80638000800010824040080001201004001CFD000000000000000000000000000000000000400000000000000000000000000000000000000000000020000000000000000000000000000000000000000000000000000000000000000000D8FD00000000000000000000000000000000000000000000000000000000000000000000000080
:80640000020000000000001000000000000004000000000000000000000000000000000000000000000000E8FC00000000000000000000000000000018000000000000000000000000000000000000000000000008000000000000000000000000000000000000000000000000000000004000000000000088FB0800000000000000000037
:806480000000000000000000000000000000000000000000004000000000000000000000000000000000000000000000000000000000000000000000000000000000000000D0FB00000000000000000000000000000000000000000000000000000000000000000000001000000000000000004000010000800000000000000000000000C0
:80650000000000000800008000000000000098FB00000000000000000000000000000000000000000000000000000000000000000000000000000000000000000000000000000000000000000000000001000000000000000008000000000080FE0400000800200000000000000000000000044100000000400000000000000000000000C8
:806580000000000000000000000000000000000000000000000800000000000200000010000110000000002070FE00001000000000000000000000020000000100000000000000040100000000000000000000000000000000000000400000000100000000000000000010080040000040002200000080000870FE00030410A0A001000081
:8066000000000080090300850122000000001000410900000000000000000000000000000000000000000100004400000000002000002804200110003048000B20180000013078FD0000A0800440200000000000000000100026004A0100000000208120040800000000000000000000000000000000090000000A02000000080018010160
:80668000100C92800210048040100800000400E8FF02000000004020000000000000000010000100000000000000000001001000000000000000000000000000000000000000000000000000000000000010900000000002400010000000008078FE0E00100001000000000000000000000080000000000000000000018000000000000007
:80670000000000000000000000000080000000000000000000000004880000080011000800002000010000000020FF800000000000000000000000000000000000000002000000000000000000000000000000000000000000000000000000000000000000000000000000000000000000000000000000000800B0FF00000100000400006E
:806780000200000000000000000000000000000000000000000000000000000000000000000000000000000080000000000000000000000000000000000000000000000000000068FF000000200000800000000200000000800000008000000000000000000100000000400000000000004008000000000000000000000000000000000085
:8068000000000008000000000400000000000000B0FC100000100000000000000000000000000000000000000000000000000080800000000000004000000000000000000000000000000000400000000000000400000000020000000000000000F4F9000000000000000000000000000000000000000000000000000000000000000000CD
:80688000200000100000000010000000000000000000000000000000000000000000040000000000010000000000F8FB000000000000000000000000000000000000000000000000000000000000000000000000000000000020008000000000000000000000000000000000000000000000000000200000000000B0FD00000000000000F3
:806900000000000000000000000000000000000000000000000000000000000000000100000004000000000001000002000000000000000000000000000000000000000000000000E8FE1A000000000000000000000000000000000000000000000000000020000000000000000000000000000000001000000000000000000000000000DF
:80698000000000000000000000000000000020008028FC00200000000000000800000000000000400000000000000000040000000000000000000000000000000000000000000000000010000000000000000000000000001000000000000000000068FC0000000000000000000000000000000000000000004000000000000000000000A3
:806A000000200000000000000000000040000000000000000000000000000000000004000000080000000000000000B0FB00000000000000100000000000000000000000000000000000000000000000000000000000000000000000000000000000000000000008000000000000000000000000000000000000000080FE00000000000069
:806A8000000000000000000000000000000000000000000000000000000000000000000000000000000000000004000303000000000000000000000000000040000000000000000000E8F8000000000000000000000000000000000000000000000000000000000000000000000000800000000000000000000004000008000000000000E0
:806B0000000000000000000000000000000000000000D8FF0200000000000000000000000000000000000000000000000000000000000000000000000000000000000000000000080000000000000000000000000000000000000000000000000000007CF900000000000000000000000000000000000000000000000000000000000000BF
:806B8000000008000040000000000004000000000000000000000000000000000000000000000000000000000000000090FB00000008000000000080000000000000000000000000000000000040000000000200000000000000010004000000000000000000000000000000000000000000000000000010000000000020FA0000000000C5
:806C00000000000000000008000000000000000000000000000000000000000000000000000000000000000000000000000000000000000000000000000000000000000000000000000090FF8040000000000008000000000000000000000000000000000000000000000000000000000000000000000000000000000000000000000000B5
:806C800000000000000000000000000000000000001440C0FA20000000000000000000000000000000000000000000002000000000000000000010002000000000000000080040000080001000008000000000000004800010000440000000000000000030FA4400000000000034000000000000000008000000000000000000000000003C
:806D000000000000000000000000000000200000000000000000000000000000000000000010000000000000000000080098FE00000800000000200000000000000000000000000000000000000000000000000100000000000080000000000000000000000000000000200000000040000000000000000080000000000048FF0000000075
:806D8000000000000000000000000000040000000000000000000000000004000002000000000200000100000000000000000000000000000000000000000000000000000080000000000048FD0000000000000000000000000000000000010000000000000000000000000000000000000000000000000000000020000000000000400060
:806E0000000000000000000000000000000050004000008070FD020000000000000000000000000000000000000000000000000000000000080000000000000004000000100000000000000000000000010000000000000000000000000010000000000000F0FD0C0000000102000000410000040000000000002000000000000080000085
:806E80000000000008000020000000000002201000000000000000000042400000400000840014800000004010000000010040FB120000000000000000000000000000008000008000000100000002000008000000080440200000000004082010000010000040200000000040040000100800000000040000000420000000F0F8004000F1
:806F000000010218008000010002000000800000C000435000000048000020000000180440300000000004036018004004000010A00080001140014000043001224000100010200120801000F8FF000100008EC02010100020000000001000040000100402601004008122050000000806C020000000000C02201000800200006010004055
:806F800003200004000310048240108000600008A80300802A68FD000000000220200000001000000000100000000000040020080200000000000000021010800000000001020840000000000040000000014000040000048000100000000000000004000004B0FF4000000081800004000000000000000000010000088000100000400074
:807000001010000000000440000000000004000000000000000000400080000000008000000800048000008000100802000000A8FB100000000000000000000000000000000000000000000000000000000000000000000000000000000000000000004002000004000000000000000000000000000000000000000000000000ECFF00005E
:807080000000000000000000000000000008000000000000000000000000000000000010000000000000000000000000000008800000004000000000000000000000000000000000000000000080FB00000000000000080000000000000004040000000000000000000000000004000000000000000200000000000080000000024000005D
:8071000000000000000000000000400000000010000000000400F0F8000000000000000000000000000000200000000000000000000000000000000000000000000000000000000000000100000400000000000000000000000000000000000000000000000000B8FA040000000000000000000000000000000000000000000000000000F8
:807180000000000000000000000000000000000000000002000000000000000000000000000000000000000000000000000000087AFB00000000000000000000000000000000000000000000000000000000000000000000000040000000000000000000000000000000000000000000000000000000000000000800000000000058FF0869
:80720000000000000000000000000000000000000000000000000000000000000000000000000000000000000000000000048000100000000004000000010000000000000200800000000000000060FF1000000000000000000000000000000000000000000000000000000000000000000804001000000000000000080000000000000060
:80728000000000000000000000000000000000000001000000000000FA40000000000000000000000000000040000000000000000000000000000010000000000000008000000000008000000000000000000000000000000000000000000002000800000000800020FD000004000000000040000000000000100000000000000000000008
:8073000020004000000000000000000000000000000000000000000000000000000000000000000000000000000020000040000004C8FB000000000000000000000000000000000000000000000000000000000000000000000000000000000000000000208000000000000000000000000000000000000000000000000000000000B0FF37
:80738000000000000000000000000000000000000000000000000000000000000000000800000000000040000000000000800201000000000000000000000000000000000002000000000000000000A0F900000080441200000000000000000000800610000000006800000000000000000000000000000000000000000000000000000053
:80740000000040030000000000000000000000000000000020000000B0FD0000000006C000000000000000000000000600000000006000000000000000000000000000000000000000000000000000000000000003000000000000000000000000000000000000000040F800000000040040000000000000000000000600000000006000EB
:80748000000000000000000000000000000000000000000000000000000000008003000000000000000000000000000000000000000000FE00000000A2C0040000000000000000000006C08800000060000000000000000000000000000000000000000000000000000000000040030000000000000000000000000000000000000000684C
:80750000FE0000000016C022000000000000000000001000180000000008000000000000000000000000000000000000000000000000000000000023020000000000000000000000000000008021000038FE0000008003F4000000000000000000008001F200000000180000000000000000000000000000000000000000000000000000E7
:80758000000000800300000000000000000000000000000000E0010000B8FC0000000006C2000000000000000000000000C0400000000000000000000000000000000000000000000000000000000000000000000000000000000000000000000000000000008001000028F8000000004720440000000000000000000000C002000000009D
:8076000000000000000000000000000000000000000000000000000000000000000000010000000000000000000000000000008001000080F800000080009000000000000000000000000010000000000000000000040000000000000000220000000000000011000000000000004000000000000000000000000000000000000000000079
:80768000E4FB000000000600400000000000000000000000C0000000000000000000000000000000000000000000000000000000000000000000000000000000000000000000000000000000000000000018F90000000000C0000000000000000000000000004000000000000000000C000000000000000000000000000000000000000088
